:020000040800F2
:1000000078080020551C0008F9050008FB050008C9
:10001000FF050008030600080706000800000000AE
:100020000000000000000000000000000B060008B7
:100030000D060008000000000F0600081106000869
:100040006F1C00086F1C00086F1C00086F1C000864
:100050006F1C00086F1C00086F1C00086F1C000854
:100060006F1C00086F1C00086F1C00086F1C000844
:100070006F1C00086F1C00086F1C00086F1C000834
:100080006F1C00086F1C00086F1C00086F1C000824
:100090006F1C00086F1C00086F1C00086F1C000814
:1000A0006F1C00086F1C00086F1C00086F1C000804
:1000B0006F1C00086F1C00086F1C00086F1C0008F4
:1000C0006F1C00086F1C00086F1C00086F1C0008E4
:1000D0006F1C0008BD1B0008431B00086F1C0008B4
:1000E0006F1C00086F1C00086F1C00086F1C0008C4
:1000F0006F1C00086F1C00086F1C00086F1C0008B4
:100100006F1C00086F1C00086F1C00086F1C0008A3
:100110006F1C00086F1C00086F1C00086F1C000893
:100120006F1C00086F1C00086F1C00086F1C000883
:1001300000F002F800F047F80AA090E8000C8244B2
:100140008344AAF10107DA4501D100F03CF8AFF28F
:10015000090EBAE80F0013F0010F18BFFB1A43F0A5
:10016000010318476C6200008C620000103A24BF43
:1001700078C878C1FAD8520724BF30C830C144BF0C
:1001800004680C607047000000230024002500264E
:10019000103A28BF78C1FBD8520728BF30C148BFEA
:1001A0000B607047662904F03484002070471FB547
:1001B00003F0ECF904000020002103F03FFFE060B1
:1001C0001FBD10B510BD03F0F7FA1146FFF7EFFFA2
:1001D00000F06EF803F015FB03B4FFF7F2FF03BC69
:1001E00001F000FC10B54221BE4802F095FB00BFB3
:1001F0004021BC4802F0FEFB0128F9D14D21B9484D
:1002000002F08AFB00BF4021B64802F0F3FB012850
:10021000F9D10121B34802F07FFB00BF4021B14872
:1002200002F0E8FB0128F9D10021AE4802F074FB8E
:1002300000BF4021AB4802F0DDFB0128F9D10021CD
:10024000A84802F069FB00BF4021A64802F0D2FB9B
:100250000128F9D10021A34802F05EFB00BF402134
:10026000A04802F0C7FB0128F9D190219D4802F077
:1002700053FB00BF40219B4802F0BCFB0128F9D191
:100280009948007800F03F009849087008460078C7
:100290000A2806D19648C0799549897900EB012052
:1002A00084B2002090490880204604F079FA10BDFD
:1002B0001CB501F0F3FA01F05BFB00F0C9FB4FF451
:1002C000165001F09EFB4FF4165001F0E9FB00F0D0
:1002D00091FA00F077FC01F0B9FA01208549086035
:1002E00085A010210B46C822CDE900101E21002058
:1002F00001F09AF84FF47A7001F00DFB4FF6FF70A1
:1003000000F04AFCECE07E480068002834D105206B
:1003100001F001FB7A480068002844D101207549AA
:1003200008604FF6FF7000F037FC76A010210B46F6
:10033000C822CDE90010A021002001F075F875A0B9
:1003400010210B46C822CDE90010B421002001F095
:100350006BF875A010210B46C822CDE9001011469C
:10036000002001F061F84FF47A7001F0D4FA4FF6F2
:10037000FF7000F011FC16E000205E4908606EA0DE
:1003800010210B46C822CDE90010A021002001F069
:100390004BF870A010210B46C822CDE90010B42103
:1003A000002001F041F801F055FA6E4908606EA096
:1003B00010210B46C822CDE900100A21002001F0CF
:1003C00033F86848006804F0CBF904461020052390
:1003D00022461E210090002000F07DFF68A0102121
:1003E0000B46C822CDE900103221002001F01CF894
:1003F000FFF7F8FE044604F0B3F96349088063A0F0
:1004000010210B46C822CDE900105A21002001F02E
:100410000BF863A010210B46C822CDE900106E2115
:10042000002001F001F8FE2010210323CDE9001087
:10043000554802886E21212000F097FF5AA0102114
:100440000B46C822CDE900108221002000F0ECFF0D
:100450004D480088642835DB01202649086054A0F7
:1004600010211423C822CDE90010D2211E2000F053
:10047000DBFF52A010210B46C822CDE90010F0216D
:10048000002000F0D1FF53A010210B46C822CDE977
:1004900000104FF48271002000F0C6FF4FF47A7014
:1004A00001F039FA4FF47A7001F035FA4FF47A70AE
:1004B00001F031FA00204D49C1F884014FF6FF7078
:1004C00000F06AFB2748006804F0B0F804462246B2
:1004D0000B4647A002F07EFD4FF4FA7001F01BFAC4
:1004E00011E70000004400403A0000200100002015
:1004F0004C01002084012142496E6974206F6B0019
:100500000481214244616E6765726F7573212121F8
:1005100000000000434F20697320746F6F206869EA
:1005200067682121210000004C65617665206865BF
:100530007265206E6F7721004C6971756964206760
:10054000617320636F6E63656E74726174696F6E40
:10055000A3BA000053616665747920706C616365AD
:100560000000000004000020504D322E3520636F43
:100570006E63656E74726174696F6E3A000000009C
:1005800055672F6D33000000080000204843484F96
:1005900020636F6E63656E74726174696F6E3A008A
:1005A000302E303000000000672F6D330000000057
:1005B000415454454E54494F4E21000054686973CC
:1005C000204843484F20636F6E63656E7472617498
:1005D000696F6E006973206861726D20746F207995
:1005E0006F757220626F6479212121000000214221
:1005F00025342E3166000000704700BFFEE700BFC3
:10060000FEE700BFFEE700BFFEE770477047704798
:10061000704700000CB50020019000906C48006805
:1006200040F480306A49086000BF6948006800F4FF
:10063000003000900198401C0190009818B9019872
:10064000B0F5A06FF1D16248006800F4003010B13D
:100650000120009001E0002000900098012843D183
:100660005C48006840F010005A490860084600687D
:1006700020F0030008600846006840F002000860AF
:1006800053484068524948600846406848600846F8
:10069000406840F4806048600846406820F47C1060
:1006A00048600846406840F4E81048600846006822
:1006B00040F08070086000BF4548006800F000709E
:1006C0000028F9D04248406820F0030040494860C3
:1006D0000846406840F00200486000BF3C4840685F
:1006E00000F00C000828F9D10CBD10B5FFF792FFFF
:1006F00010BD10B53648006840F00100344908606C
:100700000846406834490840314948600846006856
:10071000324908402E4908600846006820F48020CD
:1007200008600846406820F4FE0048604FF41F004F
:100730008860FFF7DAFF4FF000602949086010BDBC
:1007400010B5002100200022214B5B6803F00C0152
:1007500021B1042906D0082928D107E0214B224CD9
:10076000236027E01F4B204C236023E0184B5B687D
:1007700003F47010164B5B6803F48032022303EB22
:10078000904022B9194B4343174C23600DE0104BA6
:100790005B6803F4003323B1144B4343124C2360D2
:1007A00003E0104B4343104C236003E00D4B0E4C11
:1007B000236000BF00BF064B5B68C3F303130C4C00
:1007C000E15C094B1B68CB40074C236010BD000067
:1007D00000100240002002400000FFF8FFFFF6FE7C
:1007E00008ED00E000127A000C00002000093D0036
:1007F0001000002000B587B001210C2001F066FD3B
:100800000121080301F062FDA020ADF818001820B6
:100810008DF81B0003208DF81A0006A9884801F006
:1008200099FA8020ADF8180003208DF81A001020E6
:100830008DF81B0006A9834801F08CFA80218148BD
:1008400001F037FB4020ADF8180003208DF81A00A6
:1008500010208DF81B0006A97A4801F07BFA402190
:10086000784801F026FB0420ADF8180003208DF82D
:100870001A0010208DF81B0006A9724801F06AFAD0
:100880000421704801F015FB0020ADF804004FF47E
:100890008270ADF806000020ADF808000220ADF827
:1008A0000A000120ADF80C004002ADF80E00002057
:1008B000ADF81000ADF812000720ADF8140001A942
:1008C000614801F08DFD01215F4801F02EFE07B067
:1008D00000BD00B587B001210C2001F0F7FC01211B
:1008E000880301F000FD0320ADF8180010208DF8FA
:1008F0001B0003208DF81A0006A9514801F02AFABE
:1009000002214F4801F0D5FA4FF46040ADF81800CD
:1009100018208DF81B0003208DF81A0006A94948FD
:1009200001F018FA4FF46041464801F0C0FA002087
:10093000ADF804004FF48270ADF806000020ADF869
:100940000800ADF80A00ADF80C004FF40070ADF8E7
:100950000E003820ADF810000020ADF8120007207E
:10096000ADF8140001A9394801F03AFD01213748DA
:1009700001F0DBFD07B000BD10B504463348008828
:100980004FF6C77108403149088008460088204367
:10099000088001212D4801F0C8FD10BD70B5054645
:1009A000002405E0601CC4B2C82C01DD002070BD2D
:1009B0000221264801F03DFE0028F3D029462348B5
:1009C00001F0E4FD002405E0601CC4B2C82C01DD88
:1009D0000020ECE701211D4801F02BFE0028F3D098
:1009E0001A4801F0D5FDC0B2E1E7024600BF108908
:1009F00000F002000028FAD0918100BF108900F0B9
:100A000001000028FAD09089C0B27047014600BFAB
:100A10000E480830008800F002000028F8D00B488B
:100A20000C30018000BF09480830008800F0010048
:100A30000028F8D005480C300088C0B2704700008C
:100A400000080140000C0140003001400038004027
:100A500008B501210C2001F039FC0220ADF800009E
:100A600010208DF8030003208DF8020069460A4823
:100A700001F070F90221084801F019FA0220ADF8DE
:100A8000000004208DF8030003208DF80200694661
:100A9000024801F05FF908BD00080140000C014068
:100AA00010B504468021FA4801F003FA4021F848C5
:100AB00001F0FFF9E1B2F748FFF797FF8021F44812
:100AC00001F0F5F910BD10B504468021F04801F0A1
:100AD000F0F94021EE4801F0EAF92112ED48FFF764
:100AE00084FFE1B2EB48FFF780FF8021E84801F086
:100AF000DEF910BD10B504468021E54801F0D9F9B2
:100B00004021E34801F0D3F92146E248FFF76DFFA9
:100B10008021DF4801F0CBF910BD70B505460C46C9
:100B20002846FFF7BDFF2046FFF7CDFF70BD10B58B
:100B3000D9498879FFF7B4FF10BD00BF0100A0F1CB
:100B40000102D0B2FAD170477047704770B50446C1
:100B50000D46D149C879FFF7A3FF2012FFF7CAFF5E
:100B6000E0B2FFF7C7FFCC49087AFFF799FF2812D8
:100B7000FFF7C0FFE8B2FFF7BDFF70BD70B50446D8
:100B80000D4629462046FFF7E1FFFFF7D0FFC34897
:100B90000088FFF798FF70BD70B506460024BE4878
:100BA00005884088454300210846FFF7CFFFFFF73F
:100BB000BEFF00BF03E03046FFF785FF641CAC4278
:100BC000F9D370BD10B50020B5490860322000F09F
:100BD000A2FE0120B349C1F88401322000F09BFE3F
:100BE0000421AB4801F065F9142000F094FE0421C3
:100BF000A74801F05CF9142000F08DFEF020A64912
:100C000008804FF4A07048802C2088712A20C87179
:100C10002B200872CB20FFF743FF3920FFF76AFF34
:100C20002C20FFF767FF0020FFF764FF3420FFF759
:100C300061FF0220FFF75EFFCF20FFF731FF0020AA
:100C4000FFF758FFC120FFF755FF3020FFF752FF95
:100C5000E820FFF725FF8520FFF74CFF0020FFF776
:100C600049FF7820FFF746FFEA20FFF719FF002031
:100C7000FFF740FF0020FFF73DFFED20FFF710FFDB
:100C80006420FFF737FF0320FFF734FF1220FFF740
:100C900031FF8120FFF72EFFF720FFF701FF202013
:100CA000FFF728FFC020FFF7FBFE2320FFF722FFFE
:100CB000C120FFF7F5FE1020FFF71CFFC520FFF74E
:100CC000EFFE3E20FFF716FF2820FFF713FFC72097
:100CD000FFF7E6FE8620FFF70DFF3620FFF7E0FE68
:100CE0004820FFF707FF3A20FFF7DAFE5520FFF70D
:100CF00001FFB120FFF7D4FE0020FFF7FBFE182014
:100D0000FFF7F8FEB620FFF7CBFE0820FFF7F2FE54
:100D10008220FFF7EFFE2720FFF7ECFEF220FFF71F
:100D2000BFFE0020FFF7E6FE2620FFF7B9FE0120F8
:100D3000FFF7E0FEE020FFF7B3FE0F20FFF7DAFE3B
:100D40003120FFF7D7FE2B20FFF7D4FE0C20FFF752
:100D5000D1FE0E20FFF7CEFE0820FFF7CBFE4E207F
:100D6000FFF7C8FEF120FFF7C5FE3720FFF7C2FEF0
:100D70000720FFF7BFFE1020FFF7BCFE0320FFF7A0
:100D8000B9FE0E20FFF7B6FE0920FFF7B3FE0020E4
:100D9000FFF7B0FEE120FFF783FE0020FFF7AAFE79
:100DA0000E20FFF7A7FE1420FFF7A4FE0320FFF795
:100DB000A1FE1120FFF79EFE0720FFF79BFE3120CA
:100DC000FFF798FEC120FFF795FE4820FFF792FE3F
:100DD0000820FFF78FFE0F20FFF78CFE0C20FFF797
:100DE00089FE3120FFF786FE3620FFF783FE0F20B5
:100DF000FFF780FE1120FFF753FE782000F08BFDF7
:100E00002920FFF74DFE2C20FFF74AFE4FF6FF701A
:100E1000FFF7C2FE10BD2DE9F05F05460E461746EE
:100E20009846DDF828A04FF0000B781B401C1FFAF5
:100E300080FB344613E021462846FFF787FEFFF784
:100E400076FE4FF0000906E05046FFF73CFE09F140
:100E500001001FFA80F9D945F6DB601C84B24445D5
:100E6000E9DDBDE8F09F2DE9F84F07460D469046B5
:100E70009946DDF828B0A8EB0700401C80B200902E
:100E8000A9EB0500401C1FFA80FA002422E00000B4
:100E9000000C0140003001405000002020000020E4
:100EA0008481214200802142281981B23846FFF70F
:100EB0004DFEFFF73CFE002607E004FB0A603BF80E
:100EC0001000F7490880701C86B200988642F4DB57
:100ED000601C84B25445E7DBBDE8F88F2DE9FF4F75
:100EE00085B081468A460020049003900798A0EBC5
:100EF00009050898A0EB0A06CDF80890CDF804A0E3
:100F0000002D01DD012705E00DB9002702E04FF0BB
:100F1000FF376D42002E02DD4FF0010806E016B9E2
:100F20004FF0000802E04FF0FF387642B54201DD95
:100F30002C4600E034464FF0000B21E0019A91B2BC
:100F4000029A90B2FFF71AFE04982844049003987E
:100F5000304403900498A04205DD0498001B0490DF
:100F60000298384402900398A04205DD0398001BC4
:100F700003900198404401900BF101001FFA80FB9F
:100F8000601C8345DADD09B0BDE8F08F2DE9F04142
:100F900004460D4616461F462B4632462946204635
:100FA000FFF79CFF3B46224629462046FFF796FF67
:100FB0003B46324639462046FFF790FF3B463246D5
:100FC00029463046FFF78AFFBDE8F0812DE9F0475A
:100FD00006460F469046002445460320A0EB4809EC
:100FE0003CE07A1B91B2321990B2FFF7C7FD3A1B71
:100FF00091B2721990B2FFF7C1FD3A1991B272190C
:1010000090B2FFF7BBFD7A1991B2321990B2FFF797
:10101000B5FD7A1991B2321B90B2FFF7AFFD3A19C4
:1010200091B2721B90B2FFF7A9FD7A1B91B2321BED
:1010300090B2FFF7A3FD3A1B91B2721B90B2FFF77B
:101040009DFD641CB9F1000F03DAA000801D8144EE
:1010500004E0601B80000A3081446D1EAC42C0DD9C
:10106000BDE8F0872DE9F0478046894614468D4F4C
:1010700007EB4417002629E009EB060291B21FFA9C
:1010800088F0FFF763FDFFF752FD4FF0000A18E00C
:1010900000250FE038780121A940084020B182489E
:1010A0000088FFF710FD03E080480088FFF70BFD84
:1010B000681CC5B2082DEDDB7F1C0AF1010000F0B1
:1010C000FF0ABAF1020FE3DB701CC6B2102ED3DBAD
:1010D000BDE8F0872DE9F047804689461446744FF5
:1010E00007EBC417002629E009EB060291B21FFAAC
:1010F00088F0FFF72BFDFFF71AFD4FF0000A18E00C
:1011000000250FE038780121A940084020B1664849
:101110000088FFF7D8FC03E064480088FFF7D3FCA1
:10112000681CC5B2082DEDDB7F1C0AF1010000F040
:10113000FF0ABAF1040FE3DB701CC6B2202ED3DB2A
:10114000BDE8F0872DE9F84F81460D4617461E464B
:1011500000955548B0F80080A7F12000C7B20A9862
:10116000002850D100244BE00C2E07D107EB47009C
:10117000504901EB800010F804A004E04E4800EB59
:10118000071010F804A04FF0000B33E00AF08000C5
:1011900018B14548A0F8008003E04448008842495F
:1011A000088029464846FFF7E9FC4FEA4A604FEAC3
:1011B000106A681C85B241484088A84204DC3A485D
:1011C000A0F80080BDE8F88F0098281AB0420DD131
:1011D000009D09F101001FFA80F938480088484550
:1011E00003DC3148A0F80080ECE706E00BF10100D9
:1011F00000F0FF0BBBF1080FC8DB00BF601CC4B2DE
:10120000B442B1DB46E0002442E00C2E07D107EBEC
:101210004700284901EB800010F804A004E02648AC
:1012200000EB071010F804A04FF0000B2AE00AF0C2
:10123000800018B129464846FFF7A0FC4FEA4A60F3
:101240004FEA106A681C85B21C484088A84203DC3B
:101250001548A0F80080B5E70098281AB0420DD1D3
:10126000009D09F101001FFA80F9144800884845E3
:1012700003DC0D48A0F80080A4E706E00BF10100B4
:1012800000F0FF0BBBF1080FD1DB00BF601CC4B244
:10129000B442BADB0448A0F8008000BF92E7000027
:1012A00000000860964B000820000020220000206B
:1012B000164A0008D65800084A5D00085000002071
:1012C00010B50246012000E050430B00A1F10104DB
:1012D000E1B2F9D110BD2DE9FF4F81B0074691462B
:1012E0001E460E9D4FF0000A002439E0301B401EC0
:1012F000C1B20A20FFF7E4FFB9FBF0F00A21B0FB0E
:10130000F1F201FB1208BAF1000F16D1701EA042D3
:1013100013DDB8F1000F0ED10020AB4605EBDB71F9
:10132000491001FB0471009088B22B4620220299DB
:10133000FFF708FF12E04FF0010A0020AB4605EB73
:10134000DB71491001FB0471009088B208F1300193
:10135000CAB22B460299FFF7F5FE00BF601CC4B26B
:10136000B442C3DB05B0BDE8F08F2DE9FF4F83B079
:10137000064692461F46DDE91048002002900025EF
:101380004DE0781B401EC1B20A20FFF799FFBAFB5F
:10139000F0F00A21B0FBF1F201FB1209029850BBF8
:1013A000781EA84227DDB9F1000F22D108F0800095
:1013B00078B108F00100A34604EBDB71491001FB92
:1013C0000561009088B2234630220499FFF7BAFEE7
:1013D0000EE008F00100A34604EBDB71491001FBAD
:1013E0000561009088B2234620220499FFF7AAFEE7
:1013F00013E00120029008F00100A34604EBDB712A
:10140000491001FB0561009088B209F13001CAB2B0
:1014100023460499FFF796FE00BF681CC5B2BD4283
:10142000AFDB07B0BDE8F08F2DE9F84F04460D465D
:1014300090469946DDE90A6704F0FF0A08EB0400CC
:101440001FFA80F809EB05001FFA80F916E0444501
:1014500002DB5446A81985B24D4500DB14E001209B
:1014600000903A78334629462046FFF76BFE304617
:1014700006EBD07104EB61018CB27F1C38787E28BA
:1014800002DC38782028E2DA00BFBDE8F88F2DE9C9
:10149000F04781460F460024002524E0781981B2E8
:1014A0004846FFF753FBFFF742FB4FF0000815E0FB
:1014B000012000EB44005C490E5C4FF6FF7000EA2F
:1014C0000626084610F8140006433046FFF7FBFADC
:1014D000601C84B208F101001FFA80F8B8F1280FEF
:1014E000E6DB681C85B2282DD8DBBDE8F0871CB58B
:1014F0004FF6FF70FFF750FB1F204C4908804CA0AF
:101500001021CDE900104B490988183988B2102301
:10151000C8220021FFF788FF4FF478404349088034
:101520001CBD1CB54FF6FF70434908804FF478404E
:101530003E490880002211461046FFF7CBFD0122EC
:1015400000212820FFF7C6FD022200215020FFF7CE
:10155000C1FD002223211046FFF784FD0122232133
:101560001420FFF77FFD022223212820FFF77AFDB8
:10157000032223213C20FFF775FD04222321502064
:10158000FFF770FD052223216420FFF76BFD2BA0E0
:1015900010210B46C822CDE9001037210020FFF7AB
:1015A00043FF1CBD70B500254B2410E0002506E06C
:1015B00021462846FFF76BFF05F1280085B21D483C
:1015C00000882738A842F3DC04F1280084B21948C7
:1015D00040882738A042E9DC70BD10B51C4800786F
:1015E00005281FD2DFE800F0030C10151A004FF693
:1015F000FF70FFF7D1FAFFF794FFFFF7D3FF11E079
:101600000020FFF7C9FA0DE04FF47840FFF7C4FA65
:1016100008E04FF4FC60FFF7BFFA03E01F20FFF77C
:10162000BBFA00BF00BF10BD564C000820000020D0
:10163000525354005000002022000020322E32204D
:1016400054465420535049203234302A333230002B
:101650002400002000B587B0012140F2092000F0ED
:1016600035FE0120ADF8040003208DF806000020AF
:101670008DF8070001A97E4800F06CFB4FF4007064
:10168000ADF8040003208DF8060010208DF8070047
:1016900001A9774800F05EFB4FF40071744800F038
:1016A00008FC002002908DF80C008DF80D004FF41E
:1016B000602004900020059001208DF8180002A9F8
:1016C0006C4801F086FA072301220821694801F0DD
:1016D00018FB0121674801F0A8FA664801F0C7FA33
:1016E00000BF644801F0C8FA0028FAD1614801F04F
:1016F000CDFA00BF5F4801F0CEFA0028FAD107B05A
:1017000000BD10B54FF48C7000F0E1F810BD2DE96C
:10171000F04781464FF00A0A57480068B8B90120DF
:101720005549086000240020544908600AE05448E4
:1017300040F8249050F824005049096808444F4963
:101740000860641C0A2CF2DB4846BDE8F0874C4870
:1017500000684A490968081A48490860002406E0F8
:101760004749601C51F8200041F82400641C092CF2
:10177000F6DB4348C0F82490406A404909680844B1
:101780003E4908600846006802F027FE074600222E
:101790003C4B02F09BFC054602F0F0FD044620465F
:1017A000D3E710B54FF40071314800F080FBFFF72C
:1017B000A8FF01212F4801F078FA00BF02212D482F
:1017C00001F0E4FB0128F9D102212A4801F0E7FBEE
:1017D0004FF40071264800F06CFB264801F0F8FA3F
:1017E0000446FFF794FF10BD2DE9F14F009802F079
:1017F0000BFE80460022244B02F01AFE0646002211
:10180000224B02F015FE044602F02EFC82465046A2
:10181000BDE8F88F2DE9F04104461D49204603F04C
:1018200052F811D81A49204603F07EF804462046A3
:1018300002F0FCFE0546174A174B02F0F9FD074679
:1018400002F012FCBDE8F0810020FBE710B5FFF7C5
:1018500001FF10BD70B5FFF7A4FF0546FFF7C4FFF9
:1018600004462046FFF7D6FF0446204670BD000020
:10187000000C014000240140280000202C00002022
:101880005C0000200000244000C8E93F0000264022
:101890000000FA439A9999999999C93F10B56FF048
:1018A000040001F050F92E4800682E49B0FBF1F019
:1018B0002D4908700846007800EB4001C1EBC010CC
:1018C0004FF6FF7101EAC0002849088010BD0146AB
:1018D000254A12784A434FF0E0235A6100229A6168
:1018E0001A46126942F001021A6100BF4FF0E0226D
:1018F000106900F001021AB100F48032002AF5D01C
:101900004FF0E022126922F001024FF0E0231A6149
:1019100000229A6170470146144A12884A434FF0E8
:10192000E0235A6100229A611A46126942F00102CC
:101930001A6100BF4FF0E022106900F001021AB1F5
:1019400000F48032002AF5D04FF0E022126922F034
:1019500001024FF0E0231A6100229A6170470000F3
:101960000C00002000127A0030000020320000201D
:1019700010B54FF4A06001F097F810BD10B50A46FD
:101980000346C41700EB1454241330341470C417E6
:1019900000EB14542413A0EB0434A1B20B46CC1773
:1019A00001EB14642412303454700346C41700EB66
:1019B00014642412A0EB0424A1B20B46CC1701EB53
:1019C00014742411303494700346C41700EB14745B
:1019D0002411A0EB0414A1B201F13003D370202331
:1019E000137110BD014600BF704700BF924A1288B4
:1019F00002F04002002AF9D0C2B28F4B1B1D1A80A0
:101A0000704710B586B00446012144F2040000F08E
:101A10005DFC894800F044FE4FF40070ADF81400FE
:101A200003208DF8160018208DF8170005A98348AB
:101A300000F090F94FF48060ADF8140004208DF8A8
:101A4000170005A97D4800F085F925208DF80000D4
:101A500003208DF801008DF8020001208DF80300AD
:101A6000684601F026F801940020ADF80800ADF8B2
:101A70000A00ADF80C00ADF810000C20ADF80E0017
:101A800001A96D4800F04FFE012240F225516A483D
:101A900000F0E1FE0121684800F0D1FE06B010BD63
:101AA00010B586B004460121042000F00FFC01218E
:101AB000480400F018FC624800F0F2FD0420ADF884
:101AC000140003208DF8160018208DF8170005A9C2
:101AD0005A4800F03FF90820ADF8140004208DF8B2
:101AE000170005A9554800F035F926208DF80000AB
:101AF00003208DF8010002208DF8020001208DF8EE
:101B00000300684600F0D5FF01940020ADF80800FE
:101B1000ADF80A00ADF80C00ADF810000C20ADF8DF
:101B20000E0001A9464800F0FEFD012240F22551B9
:101B3000434800F090FE0121414800F080FE06B0CD
:101B400010BD10B540F225513D4800F069FF10B3BB
:101B50003B4800F0E5FEC4B23A48008800F400407B
:101B6000C8B93848008800F4804060B1602C03D0C8
:101B700000203449088020E03248008840F40040CA
:101B80003049088019E0502C06D12E48008840F4D6
:101B900080402C49088010E02A480088C0F30D00DE
:101BA00029490C5427480088401C264908800846CB
:101BB0000088C72801DD0020088010BD10B540F264
:101BC00025511D4800F02CFF10B31B4800F0A8FE63
:101BD000C4B21E48008800F40040C8B91B48008801
:101BE00000F4804060B10A2C03D00020174908801F
:101BF00020E01648008840F400401449088019E0AD
:101C00000D2C06D11148008840F480400F4908800F
:101C100010E00E480088C0F30D000D490C540B482D
:101C20000088401C0949088008460088C72801DD53
:101C30000020088010BD000000380140000801406D
:101C4000004400403A0000204C01002038000020F1
:101C5000840000200948804709480047FEE7FEE766
:101C6000FEE7FEE7FEE7FEE7FEE7FEE7FEE7FEE74C
:101C700004480549054A064B70470000F306000872
:101C80003101000878020020780800207804002044
:101C90007804002010B50446CC48844208D10121C4
:101CA000042000F02DFB0021042000F029FB46E079
:101CB000C748844208D10121082000F021FB0021FF
:101CC000082000F01DFB3AE0C248844208D10121FF
:101CD000102000F015FB0021102000F011FB2EE079
:101CE000BD48844208D10121202000F009FB0021D9
:101CF000202000F005FB22E0B848844208D10121F1
:101D0000402000F0FDFA0021402000F0F9FA16E032
:101D1000B348844208D10121802000F0F1FA00216B
:101D2000802000F0EDFA0AE0AE48844207D101219C
:101D3000801500F0E5FA0021A01500F0E1FA10BDD1
:101D400010B50121084600F0DBFA0021012000F067
:101D5000D7FA10BD2DE9F0410246002500260020EB
:101D600000230024002791F803C00CF00F0591F820
:101D700003C00CF0100CBCF1000F03D091F802C0AE
:101D80004CEA050591F800C0BCF1000F31D0146891
:101D900000202BE04FF0010C0CFA00F3B1F800C06A
:101DA0000CEA03069E4220D183004FF00F0C0CFA80
:101DB00003F7BC4305FA03FC4CEA040491F803C0A2
:101DC000BCF1280F06D14FF0010C0CFA00FCC2F850
:101DD00014C00AE091F803C0BCF1480F05D14FF0E0
:101DE000010C0CFA00FCC2F810C0401C0828D1D32A
:101DF0001460B1F800C0BCF1FF0F34DD546800205E
:101E00002EE000F1080C4FF0010808FA0CF3B1F8CD
:101E100000C00CEA03069E4221D183004FF00F0C54
:101E20000CFA03F7BC4305FA03FC4CEA040491F8EE
:101E300003C0BCF1280F05D100F1080C08FA0CF81A
:101E4000C2F8148091F803C0BCF1480F07D100F12B
:101E5000080C4FF0010808FA0CF8C2F81080401C7A
:101E60000828CED35460BDE8F0814FF6FF710180A1
:101E7000022181700421C1707047024600209368DE
:101E80000B400BB1012000E000207047014688683C
:101E900080B2704702460020D3680B400BB101208E
:101EA00000E0002070470146C86880B270470161B9
:101EB0007047416170470AB1016100E041617047BC
:101EC000C16070474FF480320A4382618161826150
:101ED00082698269704702460020434B18684FF6BA
:101EE0008073184040EA021008433F4B1860704767
:101EF0003E49C8617047F0B50A460023002400211E
:101F0000002500F00046B6F1004F02D1364EF169CF
:101F100001E0354E7168C0F3034583B200F440160A
:101F2000B6F5401F08D121F070612F4E766826F07B
:101F300070662D4F7E6012E000F48016B6F5801FAB
:101F400006D1032606FA05F4A14341F0706106E0CC
:101F5000460D360103FA06F6B14341F0706122B135
:101F6000460D360103FA06F6314300F00046B6F19D
:101F7000004F02D11C4EF16101E01B4E7160F0BDBB
:101F800030B500228B071C0F0F2303FA04F2164B07
:101F900008338C1053F824309343134C08348D10BD
:101FA00044F8253023468C1053F824308C07240F36
:101FB00000FA04F423430C4C08348D1044F8253007
:101FC00030BD0A49DC31086070470000000801405C
:101FD000000C0140001001400014014000180140B5
:101FE000001C014000200140000001400000204290
:101FF000DF48006840F00100DD490860084640689D
:10200000DC490840DA49486008460068DA49084077
:10201000D74908600846006820F480200860084618
:10202000406820F4FE0048604FF41F00886070474D
:10203000CF49096821F48031CD4A11601146096801
:1020400021F480211160B0F5803F03D0B0F5802FDE
:102050000ED106E0C649096841F48031C44A1160D6
:1020600007E0C349096841F4A021C14A116000E0BA
:1020700000BF00BF704710B50146002200230020BA
:102080004A11012A02D1BA4C236806E0022A02D181
:10209000B74C236A01E0B64C636A01F01F020124C9
:1020A00094401C400CB1012000E0002010BD38B568
:1020B000002000900024002500BF3120FFF7DBFF47
:1020C00005460098401C00900098B0F5A06F01D024
:1020D000002DF2D03120FFF7CEFF08B1012400E03F
:1020E0000024204638BD01460020A14A106820F097
:1020F000F80040EAC10010607047A04908607047CE
:10210000024600209A4B586820F47C1042EA0103F2
:102110001843974B586070479849086670470146C6
:102120000020934A506820F0030008435060704735
:102130008F48406800F00C007047014600208C4A30
:10214000506820F0F00008435060704701460020BE
:10215000874A506820F4E0600843506070470146A9
:102160000020834A506820F4605040EAC10050606B
:10217000704729B17E4A527A02437D4B5A7204E07D
:102180007B4A527A82437A4B5A7270477B49D831E4
:102190000860704701460020754A506820F44040AE
:1021A0000843506070470021714A20321170704A14
:1021B00082F82010012802D004280AD104E001216D
:1021C0006B4A2032117005E00521694A20321170F6
:1021D00000E000BF00BF704769490860704764496C
:1021E000096A0143624A11627047654944390860CF
:1021F000704730B500210022002400235C4D6D683B
:1022000005F00C0121B1042905D0082923D105E0EE
:102210005C4D056022E05B4D05601FE0544D6D682C
:1022200005F47012524D6D6805F48034022505EBFB
:1022300092421CB9544D554305600BE04C4D6D68FE
:1022400005F400351DB1504D5543056002E04D4D7C
:102250005543056002E04B4D056000BF00BF444D93
:102260006D6805F0F0010909484D6B5C0568DD40BB
:1022700045603F4D6D6805F4E061090A434D6B5CB4
:102280004568DD4085603A4D6D6805F46051C90AC6
:102290003E4D6B5C4568DD40C560354D6D6805F4AD
:1022A0004041890B3A4D6B5CC568B5FBF3F50561A0
:1022B00030BD29B12E4A526902432D4B5A6104E0C8
:1022C0002B4A526982432A4B5A61704729B1284AE6
:1022D00092690243264B9A6104E0254A926982433F
:1022E000234B9A61704729B1214AD2690243204B9E
:1022F000DA6104E01E4AD26982431D4BDA617047FD
:1023000029B11B4AD2680243194BDA6004E0184A2B
:10231000D2688243164BDA60704729B1144A1269B9
:102320000243134B1A6104E0114A12698243104BB5
:102330001A61704712494039086070470F49C864F4
:1023400070470B49C87170470948406A40F0807077
:1023500007494862704701460020054A92680A40D2
:102360000AB1012000E000207047014988727047DF
:10237000001002400000FFF8FFFFF6FE000042429E
:102380008004424200127A0000093D003C00002017
:102390004C00002010B50446BE48844208D10121FB
:1023A0008014FFF7ADFF0021A014FFF7A9FF16E08E
:1023B000B948844208D101210014FFF7AEFF002183
:1023C0002014FFF7AAFF0AE0B448844207D1012194
:1023D000C013FFF7A2FF0021E013FFF79EFF10BD1F
:1023E00010B50022028802F441520B884C88234326
:1023F0008C882343CC8823430C8923434C89234373
:102400008C892343CC8923431A430280838B4FF268
:10241000FF74234083830B8A038210BD2DE9F04FA4
:1024200085B005460C464FF0000902274FF0000822
:102430004FF0010B0026B246A88B4FF24001084036
:10244000A88302202884B5F81C90A068022801D136
:1024500000BF38E0A08810B94FF0010B01E04FF049
:10246000020B8D48854200D100E000BF6846FFF7AF
:10247000C0FEDDF800A0E088B0F5007F0AD14FEA89
:102480001A2000EB80004000A168B0FBF1F0401D75
:1024900086B20BE04FEA4B10BAFBF0F000EB800085
:1024A0004000A168B0FBF1F0401D86B20A20B6FBE7
:1024B000F0F606F00108A6EB0800C0F34F074FF650
:1024C000FF7000EA0828022F01DBFF2F02DD022740
:1024D0004FF00008E08840EA080038432884A088CC
:1024E000A1890843618808432188084340F40060BB
:1024F00040EA0909A5F81C9005B0BDE8F08F00215D
:10250000018041808180C180018141818181C181BF
:102510000721018270470021018041808180C180B4
:102520000221816000218181704721B1028842F03F
:102530004002028004E002884FF6BF731A40028016
:10254000704721B1828B42F48062828304E0828BE7
:102550004FF6FF331A408283704730B500240023C2
:102560000C110125A540ABB21AB185881D438580A9
:1025700002E085889D43858030BD1AB183880B4376
:10258000838002E083888B4383807047818170471A
:102590000146888970474FF6FF62914204D0028855
:1025A00042F48072028004E002884FF6FF631A4012
:1025B0000280704721B1828842F00402828004E0E8
:1025C00082884FF6FB731A408280704702884FF270
:1025D000FF731A40028002880A4302807047018814
:1025E00041F480510180704721B1028842F40052C9
:1025F000028004E002884DF6FF731A4002807047A3
:1026000002460020012901D0108B00E0908A70471B
:102610000146088A7047B1F5804F04D1028842F420
:102620008042028004E002884BF6FF731A40028069
:1026300070470246002013890B400BB1012000E0D7
:1026400000207047CA4302817047F0B5024600205F
:1026500000240023002501F00F070126BE40B4B27C
:102660000B1101269E40B3B2968806EA030516892F
:10267000264016B10DB1012000E00020F0BD10B5DC
:10268000002201F00F040123A3409AB2D343038137
:1026900010BD00000030014000380040003C004008
:1026A00010B50446FB48844209D101218803FFF795
:1026B00027FE00214FF48040FFF722FE32E0F6486B
:1026C000844209D101214804FFF727FE00214FF47D
:1026D0000030FFF722FE25E0F048844209D10121B5
:1026E0008804FFF71AFE00214FF48020FFF715FE43
:1026F00018E0EB48844209D10121C804FFF70DFE20
:1027000000214FF40020FFF708FE0BE0E54884426B
:1027100008D101210805FFF700FE00214FF48010C9
:10272000FFF7FBFD10BD2DE9F04786B005460E46CC
:102730000024A24600BFA1460027B08900B100BF17
:102740002F462C8A4CF6FF700440F08804432C82FC
:10275000AC894EF6F3100440B08831890843718982
:1027600008430443AC81AC8A4FF6FF400440B08973
:102770000443AC8201A8FFF73CFDC648874202D162
:10278000DDF810A001E0DDF80CA0A88900F40040FD
:1027900040B10AEBCA0000EB0A1031684900B0FBF7
:1027A000F1F807E00AEBCA0000EB0A103168890073
:1027B000B0FBF1F86420B8FBF0F0040120096421BB
:1027C00001FB1089A88900F4004040B1322000EBE1
:1027D000C900B0FBF1F000F00700044308E032202C
:1027E00000EB09106421B0FBF1F000F00F0004438E
:1027F0002C8106B0BDE8F0874FF41651016000212E
:102800008180C18001810C2141810021818170473B
:1028100010B502460020108A4FF2FF0318400B88C3
:102820004C8823438C882343CC882343184310824D
:1028300010BD0021018041808180C180704721B19D
:10284000828942F40052828104E082894DF6FF734E
:102850001A4082817047F0B5034600240026002507
:10286000002040F66A17B94200D100BF1846C1F3F4
:10287000421401F01F06012707FA06F5012C01D1C9
:102880000C3004E0022C01D1103000E014301AB1F9
:1028900007682F43076002E00768AF430760F0BD99
:1028A0001AB1838A0B43838202E0838A8B4383823B
:1028B0007047028A4FF6F0731A400282028A0A4376
:1028C0000282704782894FF2FF731A4082818289A7
:1028D0000A438281704721B1828942F002028281DB
:1028E00004E082894FF6FD731A4082817047028AA4
:1028F0004FF6DF731A400282028A0A43028270474F
:1029000021B1028A42F48042028204E0028A4BF63C
:10291000FF731A4002827047C1F308028280704739
:1029200001468888C0F308007047818941F00101A1
:1029300081817047028BD2B20283028B42EA01226C
:1029400002837047028B02F47F420283028B0A43A8
:102950000283704721B1828A42F02002828204E021
:10296000828A4FF6DF731A408282704721B1828AD1
:1029700042F01002828204E0828A4FF6EF731A401E
:102980008282704721B1828A42F00802828204E08A
:10299000828A4FF6F7731A408282704721B182898A
:1029A00042F40042828103E08289C2F30E028281F6
:1029B000704721B1828A42F40062828204E0828AF6
:1029C0004FF2FF731A4082827047828A4FF6FB7380
:1029D0001A408282828A0A438282704721B1828AA7
:1029E00042F00202828204E0828A4FF6FD731A40AE
:1029F0008282704702460020B1F5007F00D100BFFF
:102A000013880B400BB1012000E00020704701F457
:102A10000072B2F5007F00D100BFCA430280704748
:102A200070B50246002400230025002040F66A16F7
:102A3000B14200D100BFC1F3421501F01F030126CE
:102A400006FA03F3012D02D19689334006E0022DE8
:102A500002D1168A334001E0968A33400C120126D7
:102A600006FA04F41688344013B10CB1012000E0DA
:102A7000002070BD10B50022002340F66A14A14268
:102A800000D100BF0A1201249440A3B2DC430480A9
:102A900010BD0000003801400044004000480040E4
:102AA000004C00400050004031490143314A116060
:102AB000704770B5002100230F22C47804B32D4C59
:102AC000246804F4E064C4F5E064210AC1F104035D
:102AD000CA40447804FA03F1847814402143090180
:102AE000254C0678A155047804F01F050124AC405C
:102AF00005786D11AD0005F1E025C5F8004109E04C
:102B0000047804F01F050124AC401C4D06787611B2
:102B100045F8264070BD1A4A0A400243154B1B1F58
:102B20001A60704739B1134A121D12680243114BE3
:102B30001B1D1A6006E00F4A121D126882430D4BDE
:102B40001B1D1A607047042808D14FF0E021096965
:102B500041F004014FF0E022116107E04FF0E02165
:102B6000096921F004014FF0E02211617047000073
:102B70000000FA050CED00E000E400E080E100E078
:102B800080FFFF1F10B50446FA48844208D1012196
:102B90004015FFF7B5FB00216015FFF7B1FB17E00B
:102BA000F548844208D101210015FFF7A9FB002157
:102BB0002015FFF7A5FB0BE0F048844208D1012166
:102BC000C803FFF79DFB00214FF40040FFF798FB7F
:102BD00010BD30B50246002000235068E84C20406C
:102BE0000D790C6844EA0524204350609068E54C58
:102BF0002040D1E902542C434D7944EA4504204356
:102C00009060D06A20F470000C7C641EE4B2234310
:102C100040EA0350D06230BD002101600171417172
:102C20008160C16001210174704721B1826842F066
:102C30000102826003E0826822F001028260704734
:102C400021B1826842F48072826003E0826822F4DB
:102C500080728260704710B50023CBB21AB144680D
:102C60001C43446002E044689C43446010BD81689A
:102C700041F0080181607047014600208A6802F037
:102C800008020AB1012000E000207047816841F08D
:102C9000040181607047014600208A6802F0040246
:102CA0000AB1012000E00020704721B1826842F49F
:102CB000A002826003E0826822F4A0028260704772
:102CC000014600208A6802F480020AB1012000E077
:102CD0000020704710B50A4600210023416821F406
:102CE0006041531E41EA4331416010BD21B1426849
:102CF00042F40062426003E0426822F400624260F3
:102D00007047F0B504460D4600200021092D11DD65
:102D1000E068A5F10A0606EB4607072606FA07F162
:102D20008843A5F10A0606EB460603FA06F10843B6
:102D3000E0600CE0206905EB4507072606FA07F17D
:102D4000884305EB450603FA06F108432061072A8C
:102D50000FDA606B561E06EB86071F2606FA07F190
:102D60008843561E06EB860605FA06F108436063A3
:102D700022E00D2A0FDA206BD61F06EB86071F26EE
:102D800006FA07F18843D61F06EB860605FA06F118
:102D90000843206310E0E06AA2F10D0606EB860707
:102DA0001F2606FA07F18843A2F10D0606EB8606F8
:102DB00005FA06F10843E062F0BD21B1826842F4F1
:102DC0008012826003E0826822F480128260704781
:102DD0000146C86C80B2704766484C300068704746
:102DE00021B1426842F48062426003E0426822F40A
:102DF00080624260704721B1426842F48052426072
:102E000003E0426822F48052426070470A46002183
:102E1000816821F4E04111438160704721B18268EB
:102E200042F40042826003E0826822F40042826041
:102E3000704721B1826842F40212826003E0826826
:102E400022F4021282607047014600208A6802F470
:102E500000120AB1012000E000207047F0B50446DE
:102E60001546002000220026092911DDE068A1F1A5
:102E70000A0707EB470C072707FA0CF29043A1F16A
:102E80000A0707EB470703FA07F21043E0600CE07C
:102E9000206901EB410C072707FA0CF2904301EB84
:102EA000410703FA07F210432061A06BC0F30156FB
:102EB000EF1C06F1010CA7EB0C0707EB870C1F2793
:102EC00007FA0CF29043EF1C06F1010CA7EB0C077C
:102ED00007EB870701FA07F21043A063F0BD10B5B6
:102EE0000A4600210023816B21F44011531E41EA60
:102EF0000351816310BD08B5002300930090009B2F
:102F00000B440093009B1A6008BD08B502460020E0
:102F10000090009201F12800009B18440090009856
:102F2000006880B208BD0A4600214168164B19406E
:102F30001143416070474162826270470A46002136
:102F4000416821F01F0111434160704740B10949B8
:102F50000831096841F40001064A0832116007E0AF
:102F600004490831096821F40001024A083211605D
:102F7000704700000024014000280140003C01404F
:102F8000FFFEF0FFFDF7F1FFFFFD3FFF02460020CF
:102F900013680B400BB1012000E000207047CA43CA
:102FA0000260704770B502460020002300240B1217
:102FB0005568CEB205EA060415681D4015B10CB17E
:102FC000012000E0002070BD00220A12D3430360FC
:102FD000704770470FB4044910B503AA029800F077
:102FE000C3FA10BC5DF814FB3400002070B5044631
:102FF00085690068C10601D5302600E02026C0079B
:1030000007D070BDD4E9012130469047206A401CAA
:1030100020626D1EF6D570BD70B5044685690078D6
:10302000C00707D170BDD4E9012120209047206A54
:10303000401C20626D1EF6D570BD2DE9F0474FF0A3
:10304000000A89460446C0F820A02046E168884767
:10305000002876D0252806D0D4E901219047206A9F
:10306000401C2062F1E7E168204600258847C4F84B
:103070001CA006460027C4F818A02A2E09D0304606
:1030800000F0D5FF38B304EB8708303EC8F818606D
:1030900019E059F8041B204604EB87029161E168AE
:1030A0008847012F064618D1E069002820DA25F06C
:1030B00020051DE0D8F8180000EB800006EB40006A
:1030C0003038C8F818002046E1688847064600F006
:1030D000AEFF0028EED1012F0AD02E2E08D12046B7
:1030E000E16888477F1C0646022F45F02005C4DBB7
:1030F000A069002803DA404245F00105A061E80715
:1031000001D025F01005B6B1A6F14100192802D86A
:10311000203645F400654A463146204625604D4636
:10312000FDF740F858B1012806D0ED1D25F0070045
:1031300000F1080989E704E005F1040985E7304654
:103140008AE7206ABDE8F08770477047704770478C
:1031500070472DE9FF4F0C461E464FF0FF378BB0EE
:10316000D2E90001DDF860800A908A46C1F30A5571
:1031700005B93D46002108464FF00000BAF1000FA6
:1031800000F4400005DA00EB80004FF4400101EA52
:1031900050004FEA9059B9F1010F00DDB9460A9885
:1031A00050EA4A000ED044F61050A5F2FF354543D0
:1031B0002F14B8F1000F1ED07542291E1EDDC9F173
:1031C00000021CE0B8F1010F4FF0000001D03021E7
:1031D00003E0F24305E02154401CB042FBDB3046E3
:1031E0000022002121540B99C1F80880C1E9002078
:1031F0000FB0BDE8F08FBD1B6D1CDEE74A4600DA5C
:10320000694206A800F064FA06AB93E8070003AB36
:1032100083E8070050460A9900F03AFB8DE8070062
:10322000A0F500501F3800900398002D09DD42F2F0
:103230001F014A46084403A90390684600F099FD1F
:1032400008E0A0F500504A461F3803A903906846DD
:1032500000F0A3FD8DE807000004000C03D04FF040
:10326000FF30410800E01046B8F1000F03D0002203
:10327000009215461EE0751E05D400F08BF9303221
:1032800062556D1EF9D5B3460122084302D00022D3
:103290007F1C04E02078302801D100227F1E002A04
:1032A000099786D01DE0112D07DA00F073F930324E
:1032B00062556D1C50EA0102F5D1084302D0009816
:1032C000C8B10EE00021681E05E0235C625C635417
:1032D0002254401E491C8142F7DBAB46A81B401E0E
:1032E0000990002004F80B000B98099AC0F8088098
:1032F000C0E9002B7CE711264FF0000859E72DE9C3
:10330000F04F88460446D21D22F0070191B0D1E962
:103310000001CDE90A0100F076FE02460B98C00FCD
:1033200001D02D2007E02068810701D52B2002E085
:10333000202101EAC000032A099001D0072A05DBF9
:1033400003464146204600F083F909E120788006D3
:1033500001D5E06900E00620B8F1650F814606D08E
:10336000B8F1660F18D0B8F1670F70D131E00020C6
:10337000B9F1110F009001DB112301E009F1010304
:103380000AAA01A90CA8FFF7E4FEDDE90C700026EB
:1033900009F10105834647E001204B4600904FF0BC
:1033A00000470AAA01A90CA8FFF7D3FEDDE90DB07A
:1033B0000C995D46002610B909F101000D18B9EB12
:1033C000050003D4C0F1FF3609F10105A5EB0900A2
:1033D0002BE0B9F1010F01DA4FF001090020B9F13A
:1033E000110F0090484601DD112300E003460AAAB0
:1033F00001A90CA8FFF7ADFEDDE90C704D460026D3
:103400008346207800070AD4AB4500DA5D4601A860
:10341000012D04DD411911F8011C302907D04F4559
:1034200002DA17F1040F04DA012082460FE06D1E64
:10343000EEE7002F02DCED1B3E4403E0781CA842BF
:1034400000DD7D1CB81B00F1010A4FF00047207819
:10345000000703D4AA4501DB4FF0FF3A0021B7F182
:10346000004F0DF143088DF8431022D002202B238A
:10347000002F01DA7F422D234FF00A0C011EA0F12C
:10348000010000DC47B197FBFCF10CFB11720F4609
:10349000303208F8012DF1E7A8F10100037021880E
:1034A000090501D5452100E06521A0F1010800F8DA
:1034B000011C09980FA9A1EB0807FF1D00B101200D
:1034C000411901EBEA70A1693844081A401EA06155
:1034D0002078C00602D42046FFF788FD099828B15D
:1034E000D4E901219047206A401C20622078C00660
:1034F00022D52046FFF77AFD1EE0002E04DBB345FF
:1035000002DD01A8805D00E03020D4E90121904770
:10351000206A401C2062761CAAF101005FEA000AC2
:103520000AD100F033F8C0680168405CD4E9012199
:103530009047206A401C2062281EA5F10105DCDCB2
:1035400007E0D4E9012118F8010B9047206A401CDC
:103550002062381EA7F10107F3DC2046FFF75CFD6F
:10356000022011B045E60000074B70B50D467B44C4
:1035700000F05BF80446284600F016F910B14FF051
:10358000FF3070BD204670BD79E4FFFF00487047F2
:103590003402002030B5B0F10A024FEA900E71F10A
:1035A00000034EEA817EB0EB0E0061EB91014FEA21
:1035B000101E4EEA017E10EB0E0041EB11114FEA96
:1035C000102E4EEA016E10EB0E0041EB11214FEA76
:1035D000104E4EEA014E10EB0E0041EB1141401827
:1035E00041F100014FEAD00040EA41704FEAD101B9
:1035F00010EB80054FEA810444EA907444EB010427
:103600006D1944EB0404521BA3414FF0000348BF63
:103610000A3200D530BD401C41F1000130BD000030
:1036200001694A1C02610878704700B58FB0CDE986
:1036300001310021059105497944CDE90310114676
:103640006846FFF7FAFC0FB000BD0000E5FFFFFF82
:103650002DE9F0411F46044603260168072A01F4BC
:10366000006004DB08B116A505E016A503E008B16B
:1036700015A500E015A521F010002060A069C01E6E
:10368000A0610FB1401EA0612046FFF7AFFC4FB113
:10369000D4E9012138469047206A401C2062C01CB2
:1036A000206206E0206AFAE7D4E9012115F8010B4F
:1036B0009047761EF8D22046FFF7AEFCBDE8F081B9
:1036C0004E414E006E616E00494E4600696E6600C6
:1036D0002DE9F047814616468AB0324878440DC835
:1036E0008DE80D002F487844801C03AC0DC884E899
:1036F0000D0041F69B303722014491FBF2F0A0F11E
:10370000800502FB10141B3C02D56442012000E03E
:103710000020DFF890A080460027FA44AAF1BA0AF8
:103720000DE0E00709D03246684607EB47010AEB97
:10373000810100F032FB8DE8070064107F1C002C33
:10374000EFD1184F7F44A83F18E0E80714D007EBEB
:1037500004100DF1180A90E80E008AE80E00C06807
:10376000F04201D198190890324606A903A800F04A
:1037700014FB03AB83E807006D10641C002DE4D13B
:1037800032466946B8F1000F03A802D000F0F1FA02
:1037900001E000F002FBC9E90001C9F808200AB005
:1037A000BDE8F087D82C0000007B00F08000704757
:1037B00000487047140200207546FFF7F9FFAE4637
:1037C00005006946534620F00700854618B020B52D
:1037D000FEF74EFABDE820404FF000064FF000071C
:1037E0004FF000084FF0000B21F00701AC46ACE8A9
:1037F000C009ACE8C009ACE8C009ACE8C0098D4616
:1038000070470446AFF300802046FCF7E5FC00005B
:103810004FF0013C50F8042B51F8043B9A4221D15F
:10382000A2EB0C03934313EACC1317D150F8042BEB
:1038300051F8043B9A4215D1A2EB0C03934313EACF
:10384000CC130BD150F8042B51F8043B9A4209D108
:10385000A2EB0C03934313EACC13DBD04FF0000030
:10386000704700BFD01A01BAB1FA81F101F0180116
:1038700022FA01F0CB40C1F12001DBB2C0B2C01A84
:103880002CFA01F3D11A914311EAC311E6D1704722
:103890005FEA400C08BF91F0000F4FEA8C234FEA1B
:1038A000C12243EA51514FEA1C5018BF00F5F040C5
:1038B0004FEA300018BF41F000415FEA6C5C00F055
:1038C0002980BCF1FF3F08BF40F080407047130CD7
:1038D00006BF12044FF0100C4FF0000C130E04BF83
:1038E00012020CF1080C130F04BF12010CF1040CAE
:1038F000930F04BF92000CF1020CD30F04BF5200CF
:103900000CF1010C11464FF00002A0F11F00A0EBDA
:103910000C00704711F0004F08BF704731F00041B4
:103920003FF4D5AF0B0C06BF09044FF0100C4FF05D
:10393000000C0B0E04BF09020CF1080C0B0F04BFA6
:1039400009010CF1040C8B0F04BF89000CF1020C6F
:10395000CB0F04BF49000CF1010CCCF12003A0EB0C
:103960000C0022FA03F302FA0CF241EA030100F11F
:103970000100704720F07F4C80EA030023F07F476E
:10398000ACEB070303F57C5300F0004003F1FF03A9
:103990002DE980494FEA154B09B44FEA144325EA53
:1039A0000B4E24EA03480FF2042606EB13274908BE
:1039B0003E785FEA320203FB0667C7F5000707FBA4
:1039C00006F64FEA54374FEAD64606F1020607FBE1
:1039D000066CCCF1005C4FEA1C472CEA074C07FB55
:1039E00006F40CFB06F504EB15464FEA961634BFB9
:1039F00000204FF000404FEAD13706FB07FC4FEAAA
:103A00001C4C0CFB0BF7D21B03FB0CF761EB070103
:103A10000CFB0EF7B0EB074072EB17420CFB08F7FC
:103A200034BFA2EB0742B2EB074261EB17414FEA0A
:103A30000C444FEA910706FB07FC4FEA1C4C0CFBB9
:103A40000BF7B0EBC74072EB573203FB0CF734BFF8
:103A5000A2EBC742B2EBC74261EB57310CFB0EF74A
:103A6000B0EBC70072EB57720CFB08F734BFA2EB48
:103A7000C702B2EBC70261EB5771039F4FEA816146
:103A800041EA921104EBCC044FEAD1374FEA82624B
:103A900006FB07FC42EA90124FEA80604FEA1C4C9A
:103AA0000CFB0BF7D21B03FB0CF761EB07010CFBC4
:103AB0000EF7B0EB074072EB17420CFB08F734BF70
:103AC000A2EB0742B2EB074261EB17414FEA8C557C
:103AD0004FEA910704EB9C2406FB07FC4FEA1C4CC1
:103AE0000CFB0BF7B0EBC74072EB573203FB0CF744
:103AF00034BFA2EBC742B2EBC74261EB57310CFBBC
:103B00000EF7B0EBC70072EB57720CFB08F734BF2F
:103B1000A2EBC702B2EBC70261EB577115EB4C2564
:103B20004FEA816141EA92114FEA82624FEAD1374E
:103B300042EA901206FB07FC44F100044FEA806061
:103B40004FEA1C4C0CFB0BF7D21B03FB0CF761EB91
:103B500007010CFB0EF7B0EB074072EB17420CFBB2
:103B600008F734BFA2EB0742B2EB074261EB174103
:103B700015EB1C154FEA813141EA92414FEA82323E
:103B800042EA90424FEA80304FEA0C7644F100045A
:103B900048EA03434EEA0B484FF0000EB2EB080C24
:103BA00071EB030724BF624639464EEB0E0E4FF011
:103BB000000B0018524149414BEB0B0BB2EB080CC8
:103BC00071EB03077BF1000B24BF624639464EEBD5
:103BD0000E0E4FF0000B0018524149414BEB0B0BFE
:103BE000B2EB080C71EB03077BF1000B24BF6246BC
:103BF00039464EEB0E0E51EA020718BF46F0010699
:103C000016EB0E7655F1000254F1000103D5BDE824
:103C10008901BDE80088BDE88901B619BDE8004802
:103C2000524141EB0101A3F10103704780807F7E87
:103C30007D7C7B7A79787776767574737271717022
:103C40006F6E6E6D6C6C6B6A6A69686867666665D4
:103C50006464636362616160605F5F5E5E5D5D5C62
:103C60005C5B5B5A5A5959585857575656555555D3
:103C70005454535352525251515050504F4F4F4E33
:103C80004E4D4D4D4C4C4C4B4B4B4A4A4A49494981
:103C900048484847474747464646454545444444C3
:103CA000444343434342424242414141002B26D4D4
:103CB000770021D01CB54FEA370703B44FF010004E
:103CC0004FF010014FF000000FBC0BF1010BBDE8ED
:103CD0001040BBF1010F08BF5FEA170722BF12F1C6
:103CE000010211F101014FF0004143F1000300F026
:103CF000004043EA00007047F9D35708DAE746EA84
:103D0000064613F1400F4FEA16461FDD13F1200F50
:103D1000DFBF16430A46002120335B42C8D0C3F1FF
:103D2000200746EA064602FA07F74FEA164646EA31
:103D30000706C3F1200722FA03F201FA07F721FA76
:103D400003F14FF0000342EA0702B1E746EA020638
:103D500046EA06464FEA164646EA0106BCBF46EA70
:103D60000646360C4FF000034FF000024FF0000102
:103D70009EE72DE9C048934630B491E8380007C863
:103D800031EA400C48BF34EA430C03D5FFF7F2FD9B
:103D9000FFF78CFFF0BCBDE800882DE9C0489346D2
:103DA00030B491E8380007C810F0804F08BF13F016
:103DB000804F03D100F005F8FFF778FFF0BCBDE8B5
:103DC000008820F07F4780EA030023F07F4C07EB58
:103DD0000C03A3F57C5300F00040A3F1FE0392F026
:103DE000000F00F0B38095F0000F00F077802DE910
:103DF00001494FEA11404FEA144621EA004800FB0E
:103E000006FC24EA064708FB06F607FB08F800FB59
:103E100007F718EB06484CEB164C4FEA124B18EB21
:103E200007484FEA15464CEB174022EA0B4E0BFBB6
:103E300006FC25EA06470EFB06F607FB0EFE0BFB0B
:103E400007F71EEB064E4CEB164C4FF000061EEB30
:103E5000074E4CEB174B18EB0B0840F1000018EB2A
:103E60000E0B58EB000840F100008F1A4FF00001D4
:103E70003CBFC943661B14BFB5EB040C00213CBF1B
:103E8000C943F61B4FEA17444EEA8E0E27EA044553
:103E90004FEA1C4704FB07622CEA074C05FB07F7B7
:103EA0000CFB05F604FB0CFC16EB074642EB174235
:103EB00016EB0C4642EB1C421BEB060658EB0202CB
:103EC000414146EA9E0601D5BDE80189B619524135
:103ED00041EB0101A3F10103BDE801894FEA14455B
:103EE0004FEA114724EA054621EA074C05FB07F48F
:103EF00006FB07F70CFB06F105FB0CFC11EB074179
:103F000044EB17444FEA124711EB0C4144EB1C44BD
:103F100022EA074C05FB07F206FB07F70CFB06F647
:103F200005FB0CFC16EB074642EB174216EB0C4662
:103F300042EB1C456A1854F1000148BF7047B6199E
:103F4000524141EB0101A3F10103704795F0000FCD
:103F500037D04FEA11424FEA144721EA024624EAD9
:103F6000074C02FB07F106FB07F70CFB06F402FB0C
:103F70000CFC14EB074441EB17414FEA154714EBD7
:103F80000C4441EB1C4125EA074C02FB07F506FBFC
:103F900007F70CFB06F602FB0CFC16EB074645EB9D
:103FA000174516EB0C4645EB1C42121951F1000166
:103FB00048BF7047B619524141EB0101A3F101031B
:103FC00070474FEA14454FEA114724EA054621EAB3
:103FD000074C05FB07F106FB07F70CFB06F24FF059
:103FE000000605FB0CFC12EB074241EB174112EBFC
:103FF0000C4251EB1C4148BF7047921841EB010144
:10400000A3F101037047490050EAC12018BF042002
:104010004A0D18BF40F0010040F2FF72B2EB515F51
:1040200008BF40F00200012808BF05207047303863
:104030000A2801D2012070470020704710B50029DE
:104040000AD00878002807D005487844FFF7E0FB3D
:10405000002801D0002010BD0248784410BD0000A7
:10406000A62300009E23000021F00042A2F160522E
:10407000B2F5801F01F0004328BFD2F17F6C0BD94D
:104080005FEA001C43EAC20242EB507018BF70475F
:1040900028BF20F001007047B2F5801FBCBF184652
:1040A00070474FEA410C1CF5001F02D2084600F091
:1040B00005BC70B500F066FA00000089FFF7F6BF96
:1040C0004FF00040A0F58000704700002DE9C0418E
:1040D00030B4DFF8A0C23CEA111418BF3CEA131454
:1040E00000F0EC8081EA03051CEA111444EAD5745F
:1040F00018BF1CEA131500F0C780A4EB05044FF0AD
:10410000004545EAC12145EAC32341EA505143EA4B
:10411000525304F17F74994204F500344FEAC020F1
:104120004FEAC22208BF904200F09C804FEA13651C
:104130000FF24016765D4FEA134506FB05F7C7F10F
:10414000807706FB07F74FEAD737A7FB036876426D
:10415000C8F58038A7FB06CE38BFA8F1010807FBD9
:1041600008E64FF0000EA6FB028CE6FB03CEDCF166
:10417000000CCEF1004E38BFAEF1010EA6FB0C587C
:104180004FF000074FF00005E6FB0E87A1FB08C6C5
:10419000A0FB07CE16EB0E0645F10005E1FB076517
:1041A00015F1E04E7EBFA4F580345FEA46066D410E
:1041B00016F1800745F100054FEA17274FEA06661A
:1041C00047EA0567A6F1DE46B6F1805F4FEA15259E
:1041D0001FD9384624F0010C05EBC471BCF1FE6F09
:1041E00001EB0C1102D8F0BCBDE8008124425CBF99
:1041F00001F5801E9EEAC47F02D4F0BCBDE80081B8
:10420000244238D4F0BCA1F1C041BDE8004100F027
:1042100007BA4FEAD22242EA43524FEAD323A7FB1E
:1042200002864FEAD02040EA415007FB03661EEAAF
:104230000E0F4FEAD12105FB026658BFA6EB0056D0
:10424000B6EB00564FEA520E4EEAC37E18EB0E0E46
:1042500056EB530EBDD518EB02085E417F1C55F19D
:104260000005B6E74FF480154FF000074FF0000649
:104270004FF00008ADE7F0BC4FF0000001F1C04185
:1042800001F00041BDE8008111EA0C1F0CEA131592
:1042900000D00CE013EA0C1F00F025804FF0000066
:1042A000F0BC81EA030101F00041BDE80081F0BCEF
:1042B00081EA0301BDE8004100F0B2B9F0BCBDE8FD
:1042C000004170B500F05EF9097EFC3E00F007B8D1
:1042D00081EA03014FF0000001F00041704781EADC
:1042E000030100F09DB9F0BC4FF000002249BDE889
:1042F00000417047FFFDFBF9F7F5F4F2F0EEEDEB4E
:10430000E9E8E6E4E3E1E0DEDDDBDAD8D7D5D4D3D3
:10431000D1D0CFCDCCCBCAC8C7C6C5C4C2C1C0BF1F
:10432000BEBDBCBBBAB9B8B7B6B5B4B3B2B1B0AF25
:10433000AEADACABAAA9A8A8A7A6A5A4A3A3A2A109
:10434000A09F9F9E9D9C9C9B9A99999897979695C4
:1043500095949393929191908F8F8E8E8D8C8C8B60
:104360008B8A8989888887878685858484838382E8
:10437000828181800000FF070000F87F4FEA41033F
:104380004FEA5353A3F58063D3F11E03C8BFD3F1A3
:10439000210C0CDD4FF0004242EAC12242EA5052A9
:1043A00032FA03FC8CEAE17CACEBE1707047102B35
:1043B000C4BF0020704703F5787CBCF1FF3F04D0F8
:1043C0006FF0004282EA2100704770B500F0DAF821
:1043D0004992248000207047F2E710F0004248BF65
:1043E0004042B0FA80F310FA03F10AD0C3F11D0382
:1043F00003F580634FEA415002EB035202EBD121F7
:1044000070474FF000007047B0FA80F310FA03F1E4
:104410000AD0C3F11D0303F580634FEA41504FEA10
:10442000035202EBD12170474FF0000070470000AB
:10443000DFF848C170B51CEA111E1EBF1CEA131537
:104440009EEA0C0F95EA0C0F00F06F8081EA0304DE
:1044500023EA4C134EEAD47E21EA4C1141F4801138
:1044600043F48013AE44A1FB024CA0FB0365AEF104
:104470007F7E361955EB0C05A1FB034C4CF1000374
:10448000A0FB021C16EB0C06654153F10003094228
:1044900018BF46F0010613F4007F0BD14FEA033139
:1044A0004FEA0530340341EA155140EA16506FF0E7
:1044B00003020AE04FEAC3214FEAC520F40241EAB1
:1044C000555140EA56506FF0020202EB2E4201EBCA
:1044D000025585EACE710AD05FEA440C18BF24F079
:1044E000004450F1000041F1000120EAD47040F294
:1044F000FE7C624500D270BDA84214BF4FF08044DC
:104500004FF04044002E08BF0024BEF1806FA8BFCA
:10451000A1F1C041BDE8704080F282804FF0000000
:1045200001F1C04101F0004170479EEA0C0F0CEA16
:10453000131518BF95EA0C0F06D04FF0000081EA62
:10454000030E0EF0004170BD00F01CF88900013E22
:1045500000F007B800F009B84FEA430C5FEA5C5C72
:1045600008D081EA030100F05BB84FEA410C5FEA32
:104570005C5CF6D14FF00000014970470000FF0776
:104580000000F87F0EF1020E2EF0030E5EF8046BB1
:10459000364205D4012A43EB030515F5001F12D856
:1045A000012841EB010C1CF5001F0CD80ED14FEA7D
:1045B000D17C15F5001F0CEB4C0C0CF1020C08BF64
:1045C0004CEBD37C04E04FF0080C01E04FEAD37CC5
:1045D0000CEB4C0526FA05F606F00706B6F1040CBE
:1045E00006D20EEB860CBDE870404CF0010C604723
:1045F000DFE80CF0090B02024FF000414FF0000021
:10460000A1F5002170BD19461046012851EB0104A7
:1046100018BFD4F5001484BF002001F0004170BD24
:104620000808A0F500114FEA3101704743004FEA36
:10463000D30C4FEA3C0C43401FBF40070CF16051C4
:1046400013F0FE4F70471CF0006F03D100200CF0F8
:10465000004170470CF0004343EA507010B540EA47
:10466000CC0000F0E5F800BF000000924FEA000126
:10467000FFF7D6BF4FF000414FF00000A1F5002139
:104680007047000090EA010F48BF81F0004100F13F
:104690005281421A3CBF801A89184FEAD0524FF01B
:1046A0007F4C1CEA410FA2EBD15318BF9CEA026F6A
:1046B00000F03B804FF0004C4CEA00204CEA012116
:1046C00021FA03FC10EB0C0C1ED202F1FF325FEA60
:1046D0001C2040EBC25038BF70471CF07F0F4FEAE0
:1046E000400C18BFBCF17F4F38BF7047C3F12003A7
:1046F000994008BF20F00100BCF17F4F38BF7047E0
:10470000A0F1C04000F0DAB84FEA3C00000A40EBEC
:10471000C25028BF1CF0FF0F4FEA400CE6D018BF74
:10472000BCF17F4F38BF7047EAE79CEA026F05D0C3
:1047300010EA5C0F08BF00F00040704710B500F0B1
:1047400077F800BF64FBBE3E401058BFC0F1404048
:10475000491058BFC1F140418142EFF300807047DA
:10476000C10DD1F19E0206DB4FEA002343F0004366
:1047700023FA02F07047004207D54FEA4001B1F139
:10478000FE4F02D24FF00000704710B500F050F815
:1047900049922480002070476FEA20007047000093
:1047A000B0FA80F310FA03F2C3F19D030AD0D905E1
:1047B00001EB1220530638BF704700F1010008BF1B
:1047C00020F001007047000050EA010C00F1138056
:1047D0001CF5000F58BFBCF5000F01D4884270478C
:1047E00007D710F5000F58BF11F5000F15D48842F8
:1047F0007047894270471CF5000F04D5BCF5000FC7
:10480000F7D5814270474FF0807C1CEB400F38BFDA
:104810001CEB410F01D28142704710B500F008F83F
:10482000922449004FF000504FF08051FFF78CBFA9
:104830000EF1020E2EF0030E5EF8044B244204D457
:104840004FEA4102B2F17F4F11D84FEA4003B3F172
:104850007F4F0CD80ED14FEAD07CB2F17F4F0CEBDA
:104860004C0C0CF1020C08BF4CEBD17C04E04FF077
:10487000080C01E04FEAD17C0CEB4C0324FA03F462
:1048800004F00704B4F1040C06D20EEB840CBDE86E
:1048900010404CF0010C6047DFE80CF00708020202
:1048A0004FF00040A0F5800010BD0846420018BF40
:1048B000D2F1807288BF00F0004010BDFF2141EAB4
:1048C000D050C005704751EA000C00F113801CF570
:1048D000000F58BFBCF5000F01D48142704707D7C5
:1048E00011F5000F58BF10F5000F15D48142704725
:1048F000894270471CF5000F04D5BCF5000FF7D5B1
:10490000884270474FF0807C1CEB410F38BF1CEB96
:10491000400F01D28842704780EA010081EA00011D
:1049200080EA0100FFF779BF90EA010F48BF81F0EC
:1049300000413FF5AEAE421A04D882F00042A0EB2F
:10494000020011444FEAD0524FF07F4C1CEA410F55
:10495000A2EBD15318BF9CEA026F4AD04FF0004C33
:104960004CEA00204CEA012121FA03FCB0EB0C0CCC
:104970000FD412F0FE0F36D05FEA4C001DD50012A6
:1049800040EBC25038BF70471CF03F0F18BF704754
:104990000BE0A2F101025FEA1C2040EBC25038BFDD
:1049A00070471CF07F0F18BF7047C3F12003994078
:1049B00014BF401E20F00100704780084FEA122308
:1049C00008BF7047B0FA80FCA2EB0C02CCF1280CB7
:1049D00060FA0CF093EA122F04BF00EBC25070474C
:1049E0004FEAC3707047130A5FEADC1008BF7047D4
:1049F000F6E79CEA026F04D010EA5C0F08BF0020C3
:104A0000704710B5FFF714FF40DFF63E81F000401D
:104A10007047FEF774BC000000000000000000407A
:104A2000000030C00100E0E00100C0E10000C06112
:104A3000001880F1FF3F00700018003E001804DAF3
:104A400001181CEE0118386F601878F7FF187031E4
:104A50008618B01906188009061880058619C0FE48
:104A6000FF1BC000061AC0306618E070E6197C30E3
:104A7000E6187030E6186030E61870F8FF1C7030E9
:104A8000E01C7000001C7000F01F7000800F000020
:104A9000000700000000000000000000000000000F
:104AA0008000000EC00100FEFF03000EC001000EDA
:104AB000C001000EC00100FEFF01000EC001000E8B
:104AC000C001000EC00100FEFF01000EC001000683
:104AD00040000000000030700C18F0FFFC3F7070C8
:104AE0000C1870700C1870700C1870700C18F07F27
:104AF000FC1F70700C1870700C1870700C187070AF
:104B00000C1870700C18F07FFC1F70700C181000DF
:104B10000400000000000000000000000000000091
:104B2000300000007000001C7000FC1F7000008C42
:104B30007100208C7700E08C7304F08E731E708EF1
:104B4000F31F708EFB0C708E7F0C70FE730C308622
:104B5000730C3086730C3096730CF8BF730C38F8F6
:104B6000730C00B8730C00B8F30F00BE7306E09B23
:104B700073307E9873301C981330089C0330009C6F
:104B80000330008C0378E00FFF7F800700000003F4
:104B9000000000000000800080008000FC1F40003A
:104BA0004000FF7F20001000F00F000800046002AA
:104BB000800100020004000104020800E83F010235
:104BC000020202020802C83F0402070204020402B1
:104BD0000402F47F00000000F80F08080808F80F2E
:104BE00008080808F80F2002222224222812280A86
:104BF0002002FF7F00000000FC1F000000000000FA
:104C00000000FF7F80008000880888108420824098
:104C10008140A0004000400080008000FF7F200015
:104C200020002000E00F20082008200810081008AD
:104C30000808040502028000FE3F02202000FF7FDA
:104C400010047802C0033C1C8000FF7FA002900487
:104C50008C1883608000FFFFFFFFFFFFFFFFFFFF57
:104C6000FFFFFFFFFFFFFFFFFFFFFFFFFFFFFFFF54
:104C7000FFFFBEF77DEFBAD6B6B5F39CB294B39CF6
:104C8000B29434A5F7BDFBDE7DEFFFFFFFFFFFFF12
:104C9000FFFFFFFFFFFFFFFFFFFFFFFFFFFFFFFF24
:104CA000FFFFFFFFFFFFFFFFFFFFFFFFFFFFFFFF14
:104CB000FFFFFFFFFFFFFFFFFFFFFFFFFFFFBEF74D
:104CC000FBDEF39CCB5AC7390421821042104210FC
:104CD000410883184529C7390C6375AD3CE7BEF719
:104CE000FFFFFFFFFFFFFFFFFFFFFFFFFFFFFFFFD4
:104CF000FFFFFFFFFFFFFFFFFFFFFFFFFFFFFFFFC4
:104D0000FFFFFFFFFFFFFFFFFFFFFFFF3CE7B29446
:104D10000842C31882100421452986318631863124
:104D200086314529042182104108C3180842F39CAA
:104D30003CE7FFFFFFFFFFFFFFFFFFFFFFFFFFFF5E
:104D4000FFFFFFFFFFFFFFFFFFFFFFFFFFFFFFFF73
:104D5000FFFFFFFFFFFFFFFFFFFFFBDE0C63C3183A
:104D6000C3184529C7390842084208420842084288
:104D70000842C739C739863186310421410882107B
:104D8000CB5ABAD6FFFFFFFFFFFFFFFFFFFFFFFF7A
:104D9000FFFFFFFFFFFFFFFFFFFFFFFFFFFFFFFF23
:104DA000FFFFFFFFFFFFFFFFFBDECB5A821045290D
:104DB000C73908420842094A494A494A494A494AC0
:104DC000494A0842C739C739C73986314529831846
:104DD0000000C84138C6FFFFFFFFFFFFFFFFFFFFD6
:104DE000FFFFFFFFFFFFFFFFFFFFFFFFFFFFFFFFD3
:104DF000FFFFFFFFFFFF7DEF8E7382104529C7394C
:104E00000842094A8A523084CF7B8A52494A4A5220
:104E1000494ACB5ACF7B0C630842C73986314529B2
:104E2000C3180000494ABAD6FFFFFFFFFFFFFFFF8C
:104E3000FFFFFFFFFFFFFFFFFFFFFFFFFFFFFFFF82
:104E4000FFFFFFFFFFFFF39CC3180421C73908428F
:104E5000494A494A72947DEF7DEFB2944A52494AD9
:104E60008A5275ADBEF7BAD64D6BC739C739863190
:104E70004529C3184108CF7B7CE7FFFFFFFFFFFFF9
:104E8000FFFFFFFFFFFFFFFFFFFFFFFFFFFFFFFF32
:104E9000FFFFFFFFBAD608428210C7390842494ACD
:104EA000494A8E73FBDEFFFFBEF7BAD68E73084207
:104EB00030843CE77DEFFFFFB6B5494AC7398631FC
:104EC0004529042141084529B6B5FFFFFFFFFFFF33
:104ED000FFFFFFFFFFFFFFFFFFFFFFFFFFFFFFFFE2
:104EE000FFFFBEF7718C410845290842494A494AEB
:104EF0004A52B294BEF7BEF7B294CF7BCF7B494AF9
:104F0000B6B5F39C0C6338C6BAD60C638739C7397B
:104F100086314529C318410830847DEFFFFFFFFF2C
:104F2000FFFFFFFFFFFFFFFFFFFFFFFFFFFFFFFF91
:104F3000FFFF3CE7CB5A4108C7390842494A4A5269
:104F40008A52F39CFFFF7DEFC739C3180C63CB5A1D
:104F5000B6B5B294CB5A75ADFAD64D6B8739C73911
:104F600086314529042141088A5279CEFFFFFFFF8F
:104F7000FFFFFFFFFFFFFFFFFFFFFFFFFFFFFFFF41
:104F8000FFFF38C686310421C841494A494A4A527E
:104F9000494AB18CBEF7BEF7B294CF7BCF7B494A6A
:104FA00074A57DEF7CE7BEF779CE0C63C739C739AE
:104FB0008631452904218210452975ADBEF7FFFFD2
:104FC000FFFFFFFFFFFFFFFFFFFFFFFFFFFFFFFFF1
:104FD000FFFF34A5821086310842494A494A8A5265
:104FE000494A4D6BBAD6FFFFFFFF79CE0D63C73933
:104FF000CF7B7DEFFFFFFFFF75AD08428631C739DC
:10500000863145294529C318C318B2947DEFFFFFA7
:10501000FFFFFFFFFFFFFFFFFFFFFFFFFFFFFFFFA0
:10502000BEF7B28C4108C7390842494A494A8A52F8
:105030008A524A4AD07B7AC67BBE906BC939883186
:10504000C939B384BBC6F8B5CC5A8631C739C7391C
:10505000863145294529C420410830843CE7FFFFBB
:10506000FFFFFFFFFFFFFFFFFFFFFFFFFFFFFFFF50
:105070003CE78A4AC310C7390842494A494A4A4A62
:105080004A42093A084A096B497BC67A0583468336
:10509000C57AC672097B485A8731882188298631AA
:1050A000863145294529042141084A4ABAD6FFFFDD
:1050B000FFFFFFFFFFFFFFFFFFFFFFFFFFFFFFFF00
:1050C000F7C582500541C7290842494A4A42494A20
:1050D000097B889BC6B321D4A0DCE1E461ED61EDDE
:1050E00021EDA0E420DC80CB43ABC482065A4721EB
:1050F000462945290429041982108218F39C7DEF62
:10510000FFFFFFFFFFFFFFFFFFFFFFFFFFFF7DEF41
:105110004D9300A082B8C7310932494A867A43C309
:105120006BEDF4F6EBFD20FD20FD60FDA0FDA0FD84
:1051300060FD60FD20FDE0FCA0FC60F4C1DB839A13
:10514000C54945290419C42082380050CB6ABAD613
:10515000FFFFFFFFFFFFFFFFFFFFFFFFFFFFFBEE74
:1051600004A100C000F0C3A0C8414942059B20FC37
:10517000A4FC69FDE8FD63FD20FD60FD60FD60FDB0
:1051800020FD20FDE0FCE0FCA0FC60FC20FC41D305
:10519000C5494519C438826841880070495A79CE9A
:1051A000FFFFFFFFFFFFFFFFFFFFFFFFFFFFFBF61C
:1051B00082C000D086C146F141C8457989528862D3
:1051C000866AC67AC4BBE1FC60FD60FDA0FDA0FD5F
:1051D00060FD60FDE0FC60E403938472446AC541B5
:1051E0004529C35841A8409800B000600C6B79CEA7
:1051F000FFFFFFFFFFFFFFFFFFFFFFFF7DEFCE83FE
:10520000828800F8C4D80CF38AFA82E882B0456933
:10521000C7510842083A865A839BA2BC22CD21CDB1
:10522000A1C422B4C47A063A862945290531C4505E
:10523000419000C000A800A000A800304A4ABAD699
:10524000FFFFFFFFFFFFFFFFFFFF7DEF8E73C31820
:10525000053982A800F8C3F84DFB4DFBC7F9C3F030
:1052600082D8C3B00481456146518649864946418A
:1052700045414541454105490461829041B000D016
:1052800000C800A800A800B8415882108210B2944B
:10529000BEF7FFFFFFFFFFFFBEF7CF7B82100421A9
:1052A00086298641049940E841F886F9CBFA49FA03
:1052B00082F800F800F000E841D841D041C041C078
:1052C00041C041C041C800D000E000E000D800D09B
:1052D00000B800A841888248821082100000452949
:1052E00079CEFFFFFFFFBEF7F39C8210C31845295C
:1052F0008631C731307CF3DC86E100F000F841F8FC
:1053000041F800F800F800F800F800F800F800F89C
:1053100000F800F800F800E800E000E000D800C85D
:1053200041A08A9A0C630411821082104108000087
:105330004D6B7DEFFFFFFBDE0842421045298631B1
:105340008631494A38BEFFFF38D686A900C800E03A
:1053500000F000F800F800F800F800F800F800F895
:1053600000F800F000F000E800E000D0C3988A8A5E
:10537000B2A4BAC6F7B5084241088210410800003D
:105380004529F7BDFFFF718C41080421452986316D
:1053900086310C633CE7FFFF79D646B900E042C88E
:1053A00082A882B041D882E882F041E841E841E831
:1053B00041F041E841D804C108924D8B34A5FBC6A9
:1053C000FBD6BACE3CE73084C31841084108000040
:1053D0004108CF7B7DEF494A000004214529463131
:1053E00086313084FFFFFFF7F7DD09DA83F801F03B
:1053F00042C08298499AF3B4F3CC71BC8EBB8EBB89
:1054000030BC71BCF3BCB6BDFBCEBEE77DE73BDF75
:10541000BAD679CEFBDE75AD863141084108000071
:105420000000494AFBDE04214108042145294529A1
:105430008739B294FFFFBEF734DD0CEB09FA00F0B8
:1054400001D800D88BD27DE7FFFFFFFFFFFFFFFFF2
:10545000FFFFFFFFFFFFFFFFBEFF7DEFFBDEFBDE79
:10546000BAD679CEBAD678C6C7390000410800004E
:105470000000C73979CE00008210C3180421052925
:105480008631B39CFFFFFFF775DDC7E9C7F901F867
:1054900001F000E849E2FBEEFFFFFFFFFFFFFFFF27
:1054A000FFFFFFFFFFFFFFFFBEF77DEFFBDEFBDE31
:1054B000BAD679CEBAD6B9CE0842000000000000B4
:1054C0000000C73938C60000821082100421042170
:1054D00045293084FFFFFFFF38DEC4D000F001F81B
:1054E00000F800F008D2FBE6FFFFFFFFFFFFFFFF21
:1054F000FFFFFFFFFFFFFFFFBEF77DEFFBDEBAD62A
:1055000079CE79CEBAD679CEC739410800000000ED
:105510000000863138C600000000C318CB5A86311F
:10552000C318CB5A7DEFFFFF7DEFCFBBC3B041D097
:1055300041D082B84DB37DE7FFFFFFFFFFFFFFFFC4
:10554000FFFFFFFFFFFFBEF7BEF73DEFFBDEBAD662
:1055500079CE79CEFAD6F7BD042186310421000038
:105560000000863138C68631C318CB5A75ADCF7B63
:1055700041088631F7BDFFFFFFFFBEEF74B5309CD9
:10558000309C72A4BBD6FFFFFFFFFFFFFFFFFFFFB2
:10559000FFFFFFFFFFFFBEF77DEF3CE7FBDEBAD664
:1055A00079CE79CE3CE7718C81080C63CF7B821079
:1055B00000008A5238C675AD718CB6B53CE7FBDE8B
:1055C000C7390000CF73FFFFFFFFFFFFFFFFFFFFA3
:1055D000FFFFFFFFFFFFFFFFFFFFFFFFFFFFFFFFDB
:1055E000FFFFFFFFBEF77DEF7DEF3BDFFAD679CE01
:1055F00079CEFBDEB9CEC739C420718CBAD6718C96
:10560000CB5AB294BAD6FFFF7DEF7DEFFFFFFFFFCD
:10561000B6B54629051975A5FFFFFFFFFFFFFFFF80
:10562000FFFFFFFFFFFFFFFFFFFFFFFFFFFFFFFF8A
:10563000FFFFFFFFBEF77DEF3CE7FBDEBAD679CE7A
:10564000BAD6FCDE4E6342080C63F7BDBEF7FFFF1F
:10565000FBDEFBDEBEF7FFFFFFFFFFFFFFFFFFFFED
:10566000FFFFF49C04210521B6A5FFFFFFFFFFFF0C
:10567000FFFFFFFFFFFFFFFFFFFFFFFFFFFFFFFF3A
:10568000BEF7BEF77DEF3CE7FBDEBAD679CEFBDE98
:10569000BBD6D17383188639349DBDEFFFFFFFFF62
:1056A000FFFFFFFFFFFFFFFFFFFFFFFFFFFFBEFF4B
:1056B00035D6EBCC43B340510519F58CBEEFFFFF57
:1056C000FFFFFFFFFFFFFFFFFFFFFFFFBEF7BEF77C
:1056D0007DEF7DEF3CE7FBDEBADEBAD63CDF3ABEBB
:1056E0004F63824940A323B4CC833ABEFFFFFFFF40
:1056F000FFFFFFFFFFFFFFFFFFFFFFFFBFF7B5BD8E
:10570000829220F4A0FC60E4408284418F6B77ADEC
:105710003DE7FFFFFFFFFEFFBEF7BEF7BEF77DEFE1
:105720007DEF3CE7FBDEFBDE3DE7BBCE369D0B6B42
:10573000416A60C420FE60F5008BC76A38C6BEF7B8
:10574000FFFFFFFFFFFFFFFFFFFFFFFF7DEF4B7B33
:1057500080B2A0FCA0FCE0FCE0FCC0CBC18A4562AA
:105760004D6BB394F7BD3DDFFFF7FFFFBEF77DEF55
:105770007DEF7DE73DDFBAC675A58D7B847A40B3AA
:10578000E0ECE0FDE0FD60F520E5A0D40A6BFBDE77
:10579000FFFFFFFFFFFFFFFFFFFFFFFF7DEFCC934A
:1057A00040EB60FCA0FCE0FC20FD60FD20F5A0D4F7
:1057B000C0BB429B458B6B9CAE9C718CB394339D5C
:1057C00034A5F2A4F0B4CA9B049B40BB20E420FDA6
:1057D000A0FDA0FDE0FDE0FDE0FD20C4885A38BE3C
:1057E000FFFFFFFFFFFFFFFFFFFFFFFFFFFF78D679
:1057F00046AB40DB20F460FCA0FCE0FC60FDA0FDBB
:1058000060FD20F5A0DCC0B3C05186290D638F7BFD
:105810000D5BC741018200C3C0E360FCA0FCE0FC5B
:10582000E0FC60F560F520E5809B8662308479CEEF
:10583000FFFFFFFFFFFFFFFFFFFFFFFFFFFFFFFF78
:1058400038C62D9C059343A382B3C2BBC2BB22B40E
:1058500082A34293C37A85620B637184B6B579CE15
:1058600079C6B5AD70944A8B06830493049B439B21
:10587000439B4393048308738D73B39479CE7DEF78
:10588000FFFFFFFFFFFFFFFFFFFFFFFFFFFFFFFF28
:10589000FFFF3CDF38BE75B533A533A5F39CF39C01
:1058A000F39CF394F39C35A5F8BDFBDEBEF7FFFF38
:1058B000FFFFFFFF7EEFBBD6F8BDB6AD75AD34A5DB
:1058C000339D349D35A5B7AD79C63CE7BEF7FFFFE4
:1058D000FFFFFFFFFFFF00000000000000000000CE
:1058E0000000000000003F40000000000000000039
:1058F0003000400030004000000009000BC03D00B7
:105900000BC03D00090018C024407FE022403180D8
:105910000000180024C01B000D803240018003806D
:105920001C4027401C800740004010006000000021
:105930000000000000000000000000001F80204068
:1059400040200000402020401F800000000009008F
:1059500006001F80060009000000040004003F80CC
:1059600004000400000000100060000000000000BF
:105970000000040004000400040004000000000013
:1059800000400000000000000000002001C00600F0
:105990003800400000001F802040204020401F8031
:1059A0000000000010403FC000400000000018C090
:1059B0002140224024401840000010802040244014
:1059C00024401B80000002000D0011003FC0014078
:1059D00000003C80244024402440238000001F809D
:1059E000244024403440038000003000200027C0C1
:1059F0003800200000001B802440244024401B80ED
:105A000000001C0022C0224022401F800000000035
:105A100000000840000000000000000000000460DA
:105A2000000000000000000004000A0011002080B7
:105A300040400900090009000900090000000000B9
:105A40004040208011000A0004001800200023407C
:105A50002400180000001F802040274029401F40DC
:105A60000000004007C039000F0001C00040204086
:105A70003FC0244024401B8000001F802040204065
:105A800020403080000020403FC0204020401F8048
:105A9000000020403FC024402E4030C00000204085
:105AA0003FC024402E00300000000F001080204036
:105AB00022403380020020403FC0040004003FC069
:105AC0002040204020403FC0204020400000006097
:105AD000202020203FC02000200020403FC0244044
