:020000040800F2
:10000000B817002059470008B9030008BB030008CF
:10001000BF030008C3030008C70300080000000076
:10002000000000000000000000000000CB030008FA
:10003000CD03000800000000CF030008D103000832
:1000400073470008734700087347000873470008A8
:100050007347000873470008734700087347000898
:100060007347000873470008734700087347000888
:100070007347000873470008734700087347000878
:100080007347000873470008734700087347000868
:100090007347000873470008734700087347000858
:1000A0007347000873470008734700087347000848
:1000B0007347000873470008734700087347000838
:1000C0007347000873470008734700087347000828
:1000D00073470008E34500087347000873470008AA
:1000E0007347000873470008734700087347000808
:1000F00073470008734700087347000873470008F8
:1001000073470008734700087347000873470008E7
:1001100073470008734700087347000873470008D7
:1001200073470008734700087347000873470008C7
:1001300000F002F800F041F80AA090E8000C8244B8
:100140008344AAF10107DA4501D100F036F8AFF295
:10015000090EBAE80F0013F0010F18BFFB1A43F0A5
:10016000010318477C7500009C750000103A24BFFD
:1001700078C878C1FAD8520724BF30C830C144BF0C
:1001800004680C607047000000230024002500264E
:10019000103A28BF78C1FBD8520728BF30C148BFEA
:1001A0000B607047782905F0FB86002070471FB56B
:1001B00006F091FC1FBD10B510BD05F0BFFF114644
:1001C000FFF7F5FF00F026F905F0DDFF03B4FFF7B8
:1001D000F2FF03BC04F0A0F94FF0000108466D4A9D
:1001E000126842F480326B4B1A6000BF694A126891
:1001F00002F4003001F1010110B9B1F5A06FF5D1A1
:10020000644A126812F4003F02D04FF0010001E08E
:100210004FF00000012842D15F4A126842F01002FC
:100220005D4B1A601A46126822F003021A601A46E1
:10023000126842F002021A60564A5268554B5A60E0
:100240001A4652685A601A46526842F480625A60EE
:100250001A46526822F47C125A601A46526842F4D6
:10026000E8125A601A46126842F080721A6000BFA3
:10027000484A126812F0007FFAD0464A526822F0CB
:100280000302444B5A601A46526842F002025A6016
:1002900000BF404A526802F00C02082AF9D17047A8
:1002A00010B5FFF799FF10BD10B53A48006840F04F
:1002B00001003849086008464068384900EA0100F2
:1002C0003449486008460068354900EA0100314970
:1002D00008600846006820F48020086008464068EE
:1002E00020F4FE0048604FF41F008860FFF7D8FF3D
:1002F0004FF000602B49086010BD10B54FF00001B1
:1003000008460246234B5B6803F00C0121B1042927
:1003100006D008292CD107E0234B244C23602BE086
:10032000214B224C236027E01A4B5B6803F47010CA
:10033000184B5B6803F480324FF0020303EB9040EC
:100340002AB91B4B00FB03F3184C23600FE0114B41
:100350005B6813F4003F05D0154B00FB03F3134C0F
:10036000236004E0104B00FB03F3104C236003E018
:100370000D4B0E4C236000BF00BF064B5B68C3F300
:1003800003130C4CE15C094B1B6823FA01F3074C87
:10039000236010BD00100240002002400000FFF862
:1003A000FFFFF6FE08ED00E000127A0000000020DA
:1003B00000093D0004000020704700BFFEE700BFB9
:1003C000FEE700BFFEE700BFFEE7704770477047DB
:1003D000704700001CB54FF6FF7001F0D4FE4FF0DF
:1003E0001F006949088069A04FF01001CDE9001095
:1003F00067490988A1F1180188B24FF010034FF046
:10040000C8024FF0000103F09AFF4FF478405E49B4
:1004100008801CBD1CB54FF0000504F033F904F052
:100420002BF94FF4165004F084F804F04BF801F067
:10043000C2FE03F0C1FF4FF478405349088055A035
:100440004FF010010B464FF0C802CDE900104FF0FD
:1004500032014FF03C0003F072FF52A010210B4616
:10046000C822CDE9001046213C2003F068FF50A0CF
:1004700010210B46C822CDE900105A213C2003F080
:100480005EFF4FA010210B46C822CDE900106E215F
:100490003C2003F054FF4DA010210B46C822CDE9AB
:1004A000001082213C2003F04AFF4E490868804733
:1004B0004FF4784001F067FE4FF47A7004F01DF9B4
:1004C0004FF4FC6001F05FFE4FF47A7004F015F910
:1004D0001F2001F058FE4FF47A7004F00EF9FFF778
:1004E00079FF4FE0002003F085FF04463D48416856
:1004F0004FF0000088473B48007D10F0800F21D06E
:100500003848008A2249098888421EDA3548408ADC
:100510001F494988884218DA3248018A1C480088F5
:100520001838814206DD2F48408A102802DAFFF78A
:1005300051FF0AE02B4A518A108A4FF4784200F0AA
:10054000B2F902E00A2004F0D8F8012C09D14FF6E4
:10055000FF7001F018FE00F0A6FB00F03EFAFFF776
:1005600039FF05F10100C5B2142D0BD14FF0000584
:100570001D48006810B94FF0010001E04FF0000085
:1005800019490860AEE700004600002052535400AD
:1005900080100020576172536869702053544D33A6
:1005A00032000000544F5543482054455354000036
:1005B00041544F4D40414C49454E54454B0000007D
:1005C000323031322F392F313100000050726573D3
:1005D00073204B45593020746F2041646A757374E1
:1005E0000000000014000020948121424FF000011F
:1005F00000BF1BE010F0800F04D04FF00102FF4B52
:100600001A6003E04FF00002FC4B1A604FEA4062B0
:100610004FEA12604FF00002F94B1A604FF00102EE
:10062000F84BC3F8842101F10102D1B20829E1DBC2
:10063000704770B506464FF000052C462046F0493D
:100640000860F049C1F88C01EF4908603046FFF7B7
:10065000CDFF062004F02BF82046EA49C1F88401BA
:100660004FF0010004F023F84FF00100E449086066
:100670004FF00000E349C1F8840100BF15E04FEAE4
:1006800044404FEA10444FF00000DD4908604FF04D
:100690000100DC49C1F88401DC48006810B104F1B4
:1006A000010084B205F10100C5B2102DE7DB4FEA6D
:1006B00024144FF00100D4490860204670BD2DE994
:1006C000FE4380464FF000073C4607E04046FFF7F8
:1006D000B0FF2DF8140004F1010084B2052CF5DB05
:1006E0004FF0000419E004F1010085B210E03DF87C
:1006F00014003DF81510884207DD3DF814603DF800
:1007000015002DF814002DF8156005F1010085B2D3
:10071000052DECDB04F1010084B2042CE3DB4FF087
:1007200000074FF0010406E03DF81400384487B29A
:1007300004F1010084B2042CF6DB4FF0030097FBB8
:10074000F0F086B23046BDE8FE832DE9F041044664
:100750000D46AF480078FFF7B2FF0646AD48007877
:10076000FFF7ADFF074626802F804FF00100BDE860
:10077000F0817FB504460D4602A903A8FFF7E5FF07
:10078000064616B9002004B070BD694601A8FFF7FF
:10079000DCFF06460EB90020F5E7BDF80400BDF801
:1007A0000C10884206DCBDF80C10BDF8040028309F
:1007B00081420CDBBDF80C00BDF80410884239DC26
:1007C000BDF80410BDF80C002830814232DABDF8C3
:1007D0000000BDF80810884206DCBDF80810BDF81E
:1007E0000000283081420CDBBDF80800BDF8001085
:1007F00088421FDCBDF80010BDF808002830814297
:1008000018DABDF80C10BDF8042001EB020000EB73
:10081000D071C1F34F012180BDF80810BDF8002050
:1008200001EB020000EBD071C1F34F0129804FF0C2
:100830000100A8E70020A6E770B504460D4616465D
:1008400075480680A4F10C0188B22B4604F10D0115
:100850008AB2294603F01AFBA5F10C0081B21930C7
:1008600083B22246204603F011FB681C81B2601C53
:1008700080B201F080FB611E88B2691C89B201F070
:100880007AFB681E81B2601C80B201F074FB6A1EA4
:1008900091B2621E90B201F06EFB062229462046FC
:1008A00003F071FB70BD70B504460D4616465A48FC
:1008B00006802946204601F05EFB2946601C80B276
:1008C00001F059FB681C81B2204601F054FB681C02
:1008D00081B2601C80B201F04EFB70BD2DE9F04189
:1008E00004464E480068002855D124B14C49881E62
:1008F000FFF73FFF3CE04A49881EFFF73AFFB8B3D5
:1009000047491239B1F9200005F0F2FF0746444982
:100910001239088A06F004F8804641481238816985
:10092000404606F011F80646394605F081FE0546B8
:1009300005F0BEFF3A4912390882B1F9220005F0EC
:10094000D7FF074636491239488A05F0E9FF804645
:1009500033481238C169404605F0F6FF064639466D
:1009600005F066FE054605F0A3FF2D4912394882C1
:100970002B481238007D10F0800F27D14FF0C000B7
:100980002749A1F1120108750846008A88810846A6
:10099000408AC8811AE022481238007D10F0800F8A
:1009A00009D01F481238007D20F080001C49A1F1B9
:1009B000120108750AE04FF000001949A1F1120177
:1009C0008881C8814FF6FF70088248821448123827
:1009D000007D00F08000BDE8F08138B51049123983
:1009E0008869104905F0B0FF044605F045FF009006
:1009F00004222821684600F042FF15E08C012242C3
:100A00008401224200002242800122420801224247
:100A10003C0000203D00002046000020280122422A
:100A20002600002020BCBE4CF949C869F94905F0F0
:100A30008BFF044605F020FF009004222C2168461D
:100A400000F01DFF02223021F148203000F017FF96
:100A500002223221EE48223000F011FF012234211F
:100A6000EB48243000F00BFF4FF00A0000904FF0ED
:100A700001024FF03501684600F001FF38BD38B57E
:100A80004FF0000000904FF001024FF03501684632
:100A900000F04EFE00980A2844D10422282168461E
:100AA00000F046FE009805F023FF0446D94905F002
:100AB00021FED749886104222C21684600F038FEC7
:100AC000009805F015FF0446D24905F013FED04901
:100AD000C86102223021CE48203000F029FE0222D7
:100AE0003221CB48223000F023FE01223421C848B5
:100AF000243000F01DFEC64890F8240040B14FF0AD
:100B00009000C54908704FF0D000C449087007E054
:100B10004FF0D000C04908704FF09000BF490870F6
:100B2000012038BD0020FCE72DE9FC5F04460D469E
:100B300017461E46DDE90EABDDE90C894FF478401F
:100B4000B7490880B7A04FF01001CDE90010B648B2
:100B5000438802884FF0A0014FF0280003F0EFFB1C
:100B6000B2A01021CDE90010AF4843880288A0212F
:100B7000782003F0E4FBAEA01021CDE90010AA48D4
:100B800043880288B421282003F0D9FBA9A01021B2
:100B9000CDE90010A44843880288B421782003F0EE
:100BA000CEFBA5A01021CDE900109F484388028804
:100BB000C821282003F0C3FBA0A01021CDE900101C
:100BC000994843880288C821782003F0B8FB9CA08C
:100BD0001021CDE90010944843880288DC212820A8
:100BE00003F0ADFB97A01021CDE900108E4843889B
:100BF0000288DC21782003F0A2FB93A01021CDE92C
:100C00000010894843880288F021282003F097FBD0
:100C1000102004232246A0210090402003F0DCFA9B
:100C2000102004232A46A0210090902003F0D4FA3B
:100C3000102004233A46B4210090402003F0CCFA5F
:100C4000102004233246B4210090902003F0C4FA0F
:100C5000102004234246C8210090402003F0BCFA33
:100C6000102004234A46C8210090902003F0B4FAD3
:100C7000102004235246DC210090402003F0ACFAFF
:100C8000102004235A46DC210090902003F0A4FA9F
:100C9000102000906448018803236020109A03F01C
:100CA0009BFABDE8FC9F00B595B04FF00000109096
:100CB0000A9010904FF01F00594908804FF6FF70BE
:100CC0006349088001F05FFA4FF478405449088086
:100CD0004FF6FF7001F057FA4FF0000050490880BE
:100CE0005C4800684FF010014FF064034FF0A00221
:100CF000CDE900104FF02801084603F020FB4FF427
:100D0000784214210846FFF797FD4FF00000404954
:100D1000087588611FE23E484068099001200999E2
:100D200088473B48007D00F0C00040286ED14FF05E
:100D300000000A903648007D20F0400034490875D4
:100D40000846018A11AA109822F820103048418ADA
:100D5000109802EB80004180109800F10100C0B2B1
:100D600010901098012806D0022815D0032829D009
:100D7000042810D141E04FF6FF7214210846FFF716
:100D80005BFD29480088143880B24FF47842142162
:100D90000990FFF751FDAEE323480088143880B274
:100DA0004FF6FF7214210990FFF746FD1E48408858
:100DB000143880B24FF47842014609901420FFF7AE
:100DC0003BFD98E318484088143880B24FF6FF7214
:100DD000014609901420FFF72FFD1348408814386E
:100DE00080B2099010480088143880B24FF47842DD
:100DF00008900999FFF720FD7DE3BDF84400BDF898
:100E00004810401A099027D4099828E074E300009C
:100E10001400002020BCBE4C3C0000203D000020FF
:100E20004600002078313A008010002079313A00E5
:100E300078323A0079323A0078333A0079333A001E
:100E400078343A0079343A006661632069733A0075
:100E500048000020400000200998C0F100000D90DB
:100E6000BDF8461011A8C088081A099001D4099845
:100E700002E00998C0F100000C900D9840430D90DD
:100E80000C9840430C90DDE90C100844059005F0E7
:100E9000E4F9CDE9060105F081F9CDE9080105F095
:100EA000AFF980B20F90BDF84C00BDF85010401A59
:100EB000099001D4099802E00998C0F100000D9052
:100EC00011A84189C089081A099001D4099802E043
:100ED0000998C0F100000C900D9840430D900C98BB
:100EE00040430C90DDE90C100844059005F0B5F97D
:100EF000CDE9060105F052F9CDE9080105F080F9C8
:100F000080B20E900E9805F00BFD09900F9805F039
:100F100007FD0890099905F0EDFB0B900B9805F083
:100F20005BFB4FF06632FF4BCDE9080105F0A8F9F5
:100F30000DD30B9805F050FBFB4AFC4BCDE90801A3
:100F400005F02EFA03D30F9808B10E98F0BB4FF0BE
:100F500000001090F6484088A0F1140080B209907B
:100F6000F3480088A0F1140080B24FF6FF72089099
:100F70000999FFF761FC4FF4784214210846FFF706
:100F80005BFCEC490B9805F0DFFC089005F090FC49
:100F900080B211A90990C989BDF8502011AB5B89B5
:100FA000CDE90132CDE90310BDF84C00009011A845
:100FB000C0880890BDF848000790BDF8460006902C
:100FC000BDF84400059006A90EC900E002E0FFF755
:100FD000ABFDA1E2BDF84400BDF84C10401A0990E9
:100FE00001D4099802E00998C0F100000D90BDF805
:100FF000461011A84089081A099001D4099802E006
:101000000998C0F100000C900D9840430D900C9889
:1010100040430C90DDE90C100844059005F01DF9E3
:10102000CDE9060105F0BAF8CDE9080105F0E8F8C8
:1010300080B20F90BDF84800BDF85010401A0990DA
:1010400001D4099802E00998C0F100000D9011A8A0
:10105000C188C089081A099001D4099802E009984A
:10106000C0F100000C900D9840430D900C98404347
:101070000C90DDE90C100844059005F0EEF8CDE980
:10108000060105F08BF8CDE9080105F0B9F880B24A
:101090000E900E9805F044FC09900F9805F040FC66
:1010A0000890099905F026FB0B900B9805F094FA2F
:1010B0004FF066329B4BCDE9080105F0E1F809D30A
:1010C0000B9805F089FA984A984BCDE9080105F08C
:1010D00067F941D24FF00000109095484088A0F188
:1010E000140080B2099092480088A0F1140080B2E8
:1010F0004FF6FF7208900999FFF79EFB4FF4784274
:1011000014210846FFF798FB8A490B9805F01CFC50
:10111000089005F0CDFB80B20146099011A8C28964
:10112000BDF8500011AB5B89CDE90130CDE9032159
:10113000BDF84C00009011A8C0880890BDF8480088
:101140000790BDF846000690BDF84400059006A93A
:101150000EC9FFF7E9FCDFE1BDF84800BDF84C100F
:10116000401A099001D4099802E00998C0F10000E2
:101170000D9011A8C1884089081A099001D40998D6
:1011800002E00998C0F100000C900D9840430D90CA
:101190000C9840430C90DDE90C100844059005F0D4
:1011A0005CF8CDE9060104F0F9FFCDE9080105F08E
:1011B00027F880B20F90BDF84400BDF85010401AD7
:1011C000099001D4099802E00998C0F100000D903F
:1011D000BDF8461011A8C089081A099001D40998D1
:1011E00002E00998C0F100000C900D9840430D906A
:1011F0000C9840430C90DDE90C100844059005F074
:101200002CF8CDE9060104F0C9FFCDE9080104F08E
:10121000F7FF80B20E900E9805F082FB09900F98B0
:1012200005F07EFB0890099905F064FA0B900B9885
:1012300005F0D2F94FF066323A4BCDE9080105F0DE
:101240001FF809D30B9805F0C7F9374A374BCDE99A
:10125000080105F0A5F841D24FF000001090344885
:101260004088A0F1140080B2099031480088A0F1B4
:10127000140080B24FF6FF7208900999FFF7DCFA6C
:101280004FF4784214210846FFF7D6FA29490B9803
:1012900005F05AFB089005F00BFB80B2014609905F
:1012A00011A8C289BDF8500011AB5B89CDE90130AE
:1012B000CDE90321BDF84C00009011A8C08808902A
:1012C000BDF848000790BDF846000690BDF8440000
:1012D000059006A90EC9FFF727FC1DE1BDF84800DF
:1012E000BDF84410401A079005F002FB0990104821
:1012F00000882838079005F0FBFA0890099905F056
:10130000F9F90D498861BDF84800BDF8441008445A
:10131000049005F0EDFA05900748806901460490B5
:1013200005980BE06666EE3FCDCCCCCCCCCCF03F44
:10133000801000200000C8421400002005F004FBCB
:10134000079096480088059005F0EAFA06900799FC
:1013500005F0CEFB4FF08041089005F0CBF90990E5
:1013600005F08AFA00B28E49088411A84089BDF8B8
:101370004610401A079005F0BBFA0990874840884C
:101380002838079005F0B4FA0890099905F0B2F9E9
:101390008349C86111A84089BDF8461008440490EB
:1013A00005F0A6FA05907E48C069014604900598AC
:1013B00005F0CAFA079079484088059005F0B0FA20
:1013C0000690079905F094FB4FF08041089005F0D6
:1013D00091F9099005F050FA00B271494884084625
:1013E0008069079005F048FA0890002801DB08980A
:1013F00001E00898404202280DDC6948C069079066
:1014000005F03AFA0990002801DB099801E00998F3
:10141000404202284BDD4FF0000010905F484088AA
:10142000A0F1140080B209905C480088A0F114007B
:1014300080B24FF6FF7208900999FFF7FDF94FF45B
:10144000784214210846FFF7F7F956A01021CDE99C
:101450000010524840880990504800880890024681
:101460001A212820099B02F06AFF4D4890F82400B9
:1014700010B94FF0010001E04FF00000484981F839
:101480002400084690F8240040B14FF090004A49EB
:1014900008704FF0D0004949087007E04FF0D000C5
:1014A000454908704FF090004449087034E04FF00F
:1014B0001F00434908804FF6FF7000F064FE41A012
:1014C0001021CDE900103548408809903348008844
:1014D000089002466E212320099B02F030FF4FF452
:1014E0007A7003F00AF9FFF778FA4FF6FF7000F010
:1014F0004AFE15B000BD00BF0A2003F0FEF80A98AE
:1015000000F1010080B20A900A98B0F57A7F02DDFE
:10151000FFF7B5FA02E000BFFFF7FDBB00BF00BF59
:10152000E7E708B50121102003F066FF4FF00B003C
:10153000ADF800004FF003008DF802004FF01000EE
:101540008DF803006946254804F02CF840F2044069
:10155000ADF800004FF003008DF802004FF0480096
:101560008DF8030069461D4804F01CF80C4912313F
:10157000881EFFF7EAF800F058F8FFF780FA08B184
:10158000002008BD4FF6FF7000F0FDFDFFF78BFB5C
:10159000FFF723FAFFF773FA0120F2E7801000202B
:1015A000140000205450204E65656420726561640B
:1015B0006A757374210000003C0000203D0000208B
:1015C00046000020546F7563682053637265656E32
:1015D0002041646A757374204F4B21000010014054
:1015E00010B54FF000042046F14908604FF090001C
:1015F00000F0ECF9002000F0E9F9002000F0E6F935
:10160000002000F0E3F9FF2000F0E0F944EA0024B4
:101610004FF0FF0000F0DAF940EA04044FF0010057
:10162000E449C1F8B001204610BD08B501214FF4CE
:10163000947003F0E1FE4FF48050ADF800004FF0DD
:1016400010008DF803004FF003008DF8020069468A
:10165000D94803F0A7FF4FF48051D74804F05EF853
:101660004FF00400ADF800006946D44803F09AFF3B
:101670000421D24804F052F84FF08000ADF8000089
:101680006946CF4803F08EFF8021CD4804F046F82C
:1016900000F0C7F9002000F014FAFFF7A1FFC949D4
:1016A000088008BD10B54FF000042046C04908600E
:1016B0004FF0050000F08AF9FF2000F087F904469A
:1016C0004FF00100BB49C1F8B001204610BD10B574
:1016D00004464FF00000B64908604FF0010000F0EA
:1016E00075F9204600F072F94FF00100B149C1F8D8
:1016F000B00110BD10B54FF00000AD4908604FF0CB
:10170000060000F063F94FF00100AA49C1F8B001EA
:1017100010BD10B54FF00000A54908604FF004005F
:1017200000F054F94FF00100A249C1F8B00110BD1A
:101730002DE9F04106460C4617464FF000009C4943
:1017400008604FF0030000F041F9C4F3074000F0D7
:101750003DF9C4F3072000F039F9E0B200F036F9A2
:101760004FF0000506E0FF2000F030F9705505F15C
:10177000010085B2BD42F6DB4FF001008C490860E4
:10178000BDE8F08110B500BFFFF78CFF00F001004D
:101790000128F9D010BD2DE9F04106460C46174648
:1017A000FFF7A8FF4FF00000814908604FF00200EA
:1017B00000F00CF9C4F3074000F008F9C4F3072067
:1017C00000F004F9E0B200F001F94FF0000505E087
:1017D000705D00F0FBF805F1010085B2BD42F7DB5A
:1017E0004FF0010072490860FFF7CCFFBDE8F081BF
:1017F0002DE9F04107460E461446F0B2C0F580755B
:10180000AC4200DC254613E02A4631463846FFF755
:10181000C2FFAC4200D10CE02F442E44A4EB0500E3
:1018200084B2B4F5807F02DD4FF4807500E0254678
:10183000EAE700BFBDE8F08110B504464FEA043482
:10184000FFF758FFFFF79EFF4FF000005849086070
:101850004FF0200000F0BAF8C4F3074000F0B6F8EB
:10186000C4F3072000F0B2F8E0B200F0AFF84FF098
:1018700001005049C1F8B001FFF784FF10BD2DE908
:10188000F04781460F4616464FEA1738C7F30B0A52
:10189000CAF58054A64200DC344649E04FEA0831DC
:1018A0004FF480524848FFF743FF4FF0000509E02E
:1018B0000AEB05004449085CFF2800D004E005F16C
:1018C000010085B2A542F3DB00BFA54218DA40460D
:1018D000FFF7B2FF4FF0000508E019F8050005EB2F
:1018E0000A01394A505405F1010085B2A542F4DBE2
:1018F0004FEA08314FF480523348FFF779FF04E094
:10190000224639464846FFF773FFA64200D110E051
:1019100008F101084FF0000AA1442744A6EB040097
:1019200086B2B6F5805F02DD4FF4805400E03446A5
:10193000B4E700BFBDE8F08710B5FFF7DBFEFFF7A7
:1019400021FF4FF000001A4908604FF0C70000F077
:101950003DF84FF001001749C1F8B001FFF712FF41
:1019600010BD10B54FF00000114908604FF0B900EC
:1019700000F02CF84FF001000E49C1F8B0014FF013
:10198000030002F094FE10BD10B54FF000000849AE
:1019900008604FF0AB0000F019F84FF00100054966
:1019A000C1F8B0014FF0030002F081FE10BD00004D
:1019B000B081214200802142000C0140001401400E
:1019C00000200140440000208000002070B5054642
:1019D0004FF0000406E004F10100C4B2C82C01DDA0
:1019E000002070BD0221414803F02CFB0028F2D0FA
:1019F00029463E4803F0CCFA4FF0000406E004F11B
:101A00000100C4B2C82C01DD0020EAE701213748FB
:101A100003F018FB0028F2D0344803F0BBFAC0B240
:101A2000DFE700B587B00121082003F0E5FC0121C4
:101A3000880303F0F0FC4FF46040ADF818004FF05D
:101A400018008DF81B004FF003008DF81A0006A94E
:101A5000274803F0A7FD4FF46041254803F05EFEE0
:101A60004FF00000ADF804004FF48270ADF80600AE
:101A70004FF00000ADF808004FF00200ADF80A008A
:101A80004FF00100ADF80C004FF40070ADF80E00FF
:101A90004FF01800ADF810004FF00000ADF8120044
:101AA0004FF00700ADF8140001A9104803F06EF9DB
:101AB00001210E4803F02AFAFF20FFF787FF07B045
:101AC00000BD10B50446094800884FF6C77100EA0A
:101AD0000100064908800846008840EA04000880A2
:101AE0004FF00101014803F011FA10BD0038004029
:101AF000000C0140FF4908807047FF49088070478B
:101B0000FD4800887047FB4A1080FB4A11807047EF
:101B100010B504462046FFF7EDFF052002F0C7FD93
:101B2000FFF7EEFF10BDF548C079F2490880704715
:101B3000F1490880704730B5014601F01F04C1F338
:101B400045134FEAD1224FEAC42505EB431515444E
:101B5000A8B230BD00BF0100A0F10102D0B2FAD19D
:101B6000704710B503460C46E4488088A0F5134141
:101B7000413905D0E1488088A0F5D041043914D11D
:101B8000DE49087AFFF7B6FF1812FFF7B6FFD8B2A2
:101B9000FFF7B3FFD949487AFFF7ACFF2012FFF7F0
:101BA000ACFFE0B2FFF7A9FF39E0D4488088A0F588
:101BB000C85163391ED12A20FFF79CFF1812FFF786
:101BC0009CFFD8B2FFF799FF0320FFF796FF1F2075
:101BD000FFF793FF2B20FFF78DFF2012FFF78DFFFC
:101BE000E0B2FFF78AFF0120FFF787FFDF20FFF752
:101BF00084FF14E0C1488079012806D1BF480088DD
:101C0000A0F10100A0EB030083B2BC49087A194699
:101C1000FFF779FFB949487A2146FFF774FF10BDF5
:101C20002DE9F04105460E464FF000042746A04638
:101C3000B2480088A84203DDB0484088B04202DCC8
:101C40000020BDE8F08131462846FFF78AFFAB4807
:101C50008088A0F51341413905D0A8488088A0F5B7
:101C6000D041043903D12E20FFF744FF02E02220A7
:101C7000FFF740FFA1488088A0F51341203902D129
:101C80000220FFF767FF9C48008808B14FF000046E
:101C90000220FFF75FFF9848048898488088A0F5E5
:101CA0001341413909D10220FFF754FF9248B0F89F
:101CB0000080E7B24FEA072707E090488088A0F548
:101CC000D041043901D18C4804888C488088A0F523
:101CD0001341253917D089488088A0F58A413539C4
:101CE00011D086488088A0F58A4131390BD08348CD
:101CF0008088A0F50941893905D080488088A0F501
:101D00003541053901D120469BE77C488088A0F504
:101D10001341413907D1E012C002B91240EA411023
:101D200040EAE8208DE72046FFF705FF89E700B588
:101D300072488088A0F51341413905D06F488088EA
:101D4000A0F5D041043903D12920FFF7D3FE04E0E8
:101D500040F273110720FFF7D6FE00BD00B56748BB
:101D60008088A0F51341413905D064488088A0F5EA
:101D7000D041043903D12820FFF7BCFE03E0002145
:101D80000720FFF7C0FE00BD70B504464FF000030A
:101D90001E465A488079012826D158488088A0F5E7
:101DA000D041043920D0082C1DD2DFE804F004070C
:101DB0000A0D101316194FF0060414E04FF0070433
:101DC00011E04FF004040EE04FF005040BE04FF07B
:101DD000010408E04FF0000405E04FF0030402E0C6
:101DE0004FF0020400BF00BF44488088A0F51341B3
:101DF000413905D041488088A0F5D041043978D1D7
:101E0000082C1CD2DFE804F00406090C0F12151888
:101E100000BF14E043F0800311E043F040030EE004
:101E200043F0C0030BE043F0200308E043F06003FD
:101E300005E043F0A00302E043F0E00300BF00BF71
:101E40004FF0360643F008032C488088A0F5D041B7
:101E5000043901D143F0020319463046FFF753FE1F
:101E600013F0200F0DD02548008824494988884266
:101E700014DA2248058840882049088008464580B1
:101E80000CE01E4800881D494988884206DD1B4831
:101E90000588408819490880084645801749087A0E
:101EA000FFF728FE0020FFF728FE0020FFF725FEA1
:101EB00012490988491EC1F30F20FFF71EFE0F4982
:101EC0000988491EC8B2FFF718FE0C49487AFFF787
:101ED00011FE0020FFF711FE0020FFF70EFE07495C
:101EE0004988491EC1F30F20FFF707FE03494988BF
:101EF00006E00AE0FEFF0760000008608010002096
:101F0000491EC8B2FFF7F9FD34E0082C1CD2DFE807
:101F100004F004070A0D0F12151843F0300313E004
:101F200043F0100310E043F020030DE000BF0BE08E
:101F300043F0380308E043F0280305E043F01803BA
:101F400002E043F0080300BF00BFFF488088A0F50F
:101F50000941893906D14FF0110646F2400143EAA2
:101F6000010303E04FF0030643F480531946304663
:101F7000FFF7C9FD70BD30B504460D462946204621
:101F8000FFF7EFFDFFF7CFFDF0480088F04908802C
:101F900030BD30B503460C461546EB488088A0F5A9
:101FA0001341413905D0E8488088A0F5D041043973
:101FB00014D1E549087AFFF79DFD1812FFF79DFD42
:101FC000D8B2FFF79AFDE049487AFFF793FD201257
:101FD000FFF793FDE0B2FFF790FD14E0DA48807957
:101FE000012806D1D8480088A0F10100A0EB030029
:101FF00083B2D549087A1946FFF785FDD249487A58
:102000002146FFF780FDD048C079D2490880D048EA
:10201000058030BD10B50446002C74D1CA498871C2
:102020004FF0F00008804FF4A07048800846808888
:10203000A0F51341413905D0C3488088A0F5D041AF
:10204000043917D14FF02C00BF49C8714FF02A0056
:1020500008724FF02B00487208468088A0F5D041E6
:10206000043906D14FF4A070B74908804FF4F070DE
:10207000488084E0B4488088A0F5094189390AD1B4
:102080004FF02200B049C8714FF04E0008724FF077
:102090004F00487273E0AC488088702810D14FF42C
:1020A0004870A94908804FF4F07048804FF0030051
:1020B00008724FF0020048724FF00F00C8715EE0E6
:1020C000A1488088A0F5C851633910D14FF44870F9
:1020D0009D4908804FF4F07048804FF02C00C87183
:1020E0004FF02A0008724FF02B00487247E04FF083
:1020F00022009549C8714FF0200008724FF021006E
:1021000048723CE0FFE790488088A0F5D041043950
:1021100035D04FF001008C4988714FF4A0700880D1
:102120004FF0F000488008468088A0F513414139FF
:102130000AD14FF02C008449C8714FF02A00087270
:102140004FF02B0048721AE07F488088A0F50941C3
:1021500089390AD14FF022007B49C8714FF04F00F6
:1021600008724FF04E00487209E04FF022007649A5
:10217000C8714FF0210008724FF020004872002013
:10218000FFF702FE10BD70B504464FF000066E4822
:102190000588408805FB00F531460846FFF7E1FC5D
:1021A000FFF7C1FC00BF03E06948048006F10106A7
:1021B000AE42F9D370BD00B59FB00121080203F013
:1021C0000CF90121682003F017F94EF2B370ADF855
:1021D00078004FF003008DF87A004FF018008DF86A
:1021E0007B001EA95C4803F0DDF94FF68070ADF866
:1021F00078001EA9594803F0D5F94FF00200ADF858
:1022000078004FF003008DF87A004FF010008DF841
:102210007B001EA9524803F0C5F94FF0000008905A
:1022200009904FF00A000A904FF000000B900C90BC
:102230000D900E90019002904FF00A0003904FF025
:10224000000004900590069007900F901090119058
:102250004FF0100012904FF0000013901590149062
:10226000169017904FF4805018904FF0000019907E
:102270004FF480401A904FF000001B9008A81C906B
:1022800001A81D900FA803F057FB0121002003F0C7
:10229000D8FC4FF00000334908604FF0320002F0E4
:1022A0002CFA4FF001003049C1F884014FF03200A0
:1022B00002F023FA01210020FFF725FC322002F072
:1022C0001CFA0020FFF724FC1F49888008468088FC
:1022D000FF280ADB08468088A0F57F41FF3904D03B
:1022E00019488088B0F5134F5ED1D320FFF702FC68
:1022F000FFF706FCFFF704FCFFF702FC1249888099
:10230000084680884FEA00604FEA10408880FFF757
:10231000F7FB0D49898840EA01000B49888008468F
:102320008088A0F5134141392ED0BF20FFF7E2FB92
:10233000FFF7E6FBFFF7E4FBFFF7E2FBFFF7E0FB4D
:1023400001498880084611E08010002046000020E6
:1023500000000860FEFF0760001401400018014003
:10236000000C0140848121420080214280884FEA94
:1023700000604FEA10408880FFF7C2FBFF49898860
:1023800040EA0100FD498880FC488088A0F513419F
:10239000413909D0F9488088A0F5D041043903D0EB
:1023A00049F24130F5498880F4488188F4A003F06F
:1023B000B5FD4FF00000F14988714FF0F000088042
:1023C0004FF4A070488008468088A0F51341413939
:1023D00005D0EA488088A0F5D041043917D14FF0E4
:1023E0002C00E649C8714FF02A0008724FF02B000C
:1023F000487208468088A0F5D04104394ED14FF488
:10240000A070DE4908804FF4F070488046E0DB4859
:102410008088A0F5094189390AD14FF02200D749B7
:10242000C8714FF04E0008724FF04F00487235E00F
:10243000D2488088702810D14FF44870CF49088066
:102440004FF4F07048804FF0030008724FF0020024
:1024500048724FF00F00C87120E0C8488088A0F58E
:10246000C851633910D14FF44870C44908804FF403
:10247000F07048804FF02C00C8714FF02A000872AD
:102480004FF02B00487209E04FF02200BB49C871A1
:102490004FF0200008724FF021004872B748808842
:1024A000A0F5134141397ED1CF20FFF723FB002057
:1024B000FFF723FBC120FFF720FB3020FFF71DFBB8
:1024C000ED20FFF717FB6420FFF717FB0320FFF752
:1024D00014FB1220FFF711FB8120FFF70EFBE82011
:1024E000FFF708FB8520FFF708FB1020FFF705FB2F
:1024F0007A20FFF702FBCB20FFF7FCFA3920FFF729
:10250000FCFA2C20FFF7F9FA0020FFF7F6FA342046
:10251000FFF7F3FA0220FFF7F0FAF720FFF7EAFAE5
:102520002020FFF7EAFAEA20FFF7E4FA0020FFF79D
:10253000E4FA0020FFF7E1FAC020FFF7DBFA1B20E6
:10254000FFF7DBFAC120FFF7D5FA0120FFF7D5FA34
:10255000C520FFF7CFFA3020FFF7CFFA3020FFF782
:10256000CCFAC720FFF7C6FAB720FFF7C6FA362025
:10257000FFF7C0FA4820FFF7C0FA3A20FFF7BAFA8F
:102580005520FFF7BAFAB120FFF7B4FA0020FFF7A1
:10259000B4FA1A20FFF7B1FAB620FFF7ABFA0A2017
:1025A000FFF7ABFA00E097E0A220FFF7A6FAF220CF
:1025B000FFF7A0FA0020FFF7A0FA2620FFF79AFA0B
:1025C0000120FFF79AFAE020FFF794FA0F20FFF7B7
:1025D00094FA2A20FFF791FA2820FFF78EFA0820B4
:1025E000FFF78BFA0E20FFF788FA0820FFF785FA2D
:1025F0005420FFF782FAA920FFF77FFA4320FFF764
:102600007CFA0A20FFF779FA0F20FFF776FA00200C
:10261000FFF773FA0020FFF770FA0020FFF76DFA5A
:102620000020FFF76AFAE120FFF764FA0020FFF7C5
:1026300064FA1520FFF761FA1720FFF75EFA07200A
:10264000FFF75BFA1120FFF758FA0620FFF755FA5B
:102650002B20FFF752FA5620FFF74FFA3C20FFF7E6
:102660004CFA0520FFF749FA1020FFF746FA0F2031
:10267000FFF743FA3F20FFF740FA3F20FFF73DFA0C
:102680000F20FFF73AFA2B20FFF734FA0020FFF76C
:1026900034FA0020FFF731FA0120FFF72EFA3F202D
:1026A000FFF72BFA2A20FFF725FA0020FFF725FA7B
:1026B0000020FFF722FA0020FFF71FFAEF20FFF7B4
:1026C0001CFA1120FFF716FA782002F016F82920DC
:1026D000FFF710FA01F072BB28488088A0F5D041BE
:1026E00004397ED11120FFF705FA142002F005F815
:1026F000D020FFF7FFF90720FFF7FFF94220FFF78F
:10270000FCF91D20FFF7F9F9D120FFF7F3F90020BC
:10271000FFF7F3F91A20FFF7F0F90920FFF7EDF9B9
:10272000D220FFF7E7F90120FFF7E7F92220FFF7B2
:10273000E4F9C020FFF7DEF91020FFF7DEF93B20B7
:10274000FFF7DBF90020FFF7D8F90220FFF7D5F9F2
:102750001120FFF7D2F9C520FFF7CCF90320FFF7CE
:10276000CCF9C820FFF7C6F90020FFF7C6F92520ED
:10277000FFF7C3F92120FFF7C0F909E0801000201E
:10278000204C43442049443A25780D0A00000000BB
:102790000520FFF7B2F90020FFF7AFF90A20FFF795
:1027A000ACF96520FFF7A9F92520FFF7A6F97720F6
:1027B000FFF7A3F95020FFF7A0F90F20FFF79DF9CD
:1027C0000020FFF79AF9F820FFF794F90120FFF7AE
:1027D00094F9FE20FFF78EF90020FFF78EF9022012
:1027E00000E035E0FFF789F92020FFF783F9362074
:1027F000FFF780F90820FFF780F93A20FFF77AF910
:102800005520FFF77AF92B20FFF774F90020FFF726
:1028100074F90020FFF771F90120FFF76EF93F20EE
:10282000FFF76BF92A20FFF765F90020FFF765F93C
:102830000020FFF762F90120FFF75FF9DF20FFF7C3
:102840005CF9782001F059FF2920FFF753F941E79F
:10285000FF488088A0F5134125397ED147F6F00165
:10286000E520FFF750F94FF480710120FFF74BF995
:102870004FF4E0610220FFF746F941F230010320F6
:10288000FFF741F900210420FFF73DF940F2022152
:102890000820FFF738F900210920FFF734F900215B
:1028A0000A20FFF730F900210C20FFF72CF9002156
:1028B0000D20FFF728F900210F20FFF724F9002150
:1028C0001020FFF720F907211120FFF71CF9002144
:1028D0001220FFF718F900211320FFF714F9002147
:1028E0000720FFF710F941F290611020FFF70BF974
:1028F00040F227211120FFF706F99D211220FFF752
:1029000002F94FF4C8511320FFF7FDF825212920C3
:10291000FFF7F9F80D212B20FFF7F5F807213020FC
:10292000FFF7F1F840F203313120FFF7ECF8032113
:102930003220FFF7E8F840F206213520FFF7E3F8F0
:1029400008213620FFF7DFF840F206413720FFF775
:10295000DAF84FF44171382000E057E0FFF7D3F880
:1029600007213920FFF7CFF840F202613C20FFF742
:10297000CAF808213D20FFF7C6F800215020FFF7D4
:10298000C2F8EF215120FFF7BEF800215220FFF7D7
:10299000BAF840F23F115320FFF7B5F84FF4274142
:1029A0006020FFF7B0F801216120FFF7ACF80021AB
:1029B0006A20FFF7A8F800218020FFF7A4F8002183
:1029C0008120FFF7A0F800218220FFF79CF800216A
:1029D0008320FFF798F800218420FFF794F8002166
:1029E0008520FFF790F810219020FFF78CF84FF426
:1029F000C0619220FFF787F840F233110720FFF7FC
:102A000082F822210020FFF77EF863E69048808854
:102A1000A0F5134128397ED141F28F01EC20FFF758
:102A200072F841F23421EF20FFF76DF84FF4807116
:102A30000120FFF768F84FF4E0610220FFF763F828
:102A400041F230010320FFF75EF800210420FFF778
:102A50005AF840F202210820FFF755F8002109201A
:102A6000FFF751F800210A20FFF74DF801210C2053
:102A7000FFF749F800210D20FFF745F800210F204E
:102A8000FFF741F800211020FFF73DF80721112042
:102A9000FFF739F800211220FFF735F80021132045
:102AA000FFF731F801210720FFF72DF8322001F060
:102AB00024FE41F290411020FFF725F840F2272133
:102AC0001120FFF720F8322001F017FE8A21122092
:102AD000FFF719F8322001F010FE4FF4D051132007
:102AE000FFF711F806212920FFF70DF80D212B2003
:102AF000FFF709F8322001F000FE00212020FFF747
:102B000002F800212120FEF7FEFF322001F0F5FD42
:102B10000021302000E074E0FEF7F5FF40F2046190
:102B20003120FEF7F0FF40F205313220FEF7EBFFD7
:102B300000213520FEF7E7FF40F609413620FEF779
:102B4000E2FF4FF401713720FEF7DDFF40F2013163
:102B50003820FEF7D8FF40F207713920FEF7D3FF87
:102B600000213C20FEF7CFFF40F60A213D20FEF772
:102B7000CAFF322001F0C1FD00215020FEF7C3FF43
:102B8000EF215120FEF7BFFF00215220FEF7BBFFCF
:102B900040F23F115320FEF7B6FF4FF4274160206B
:102BA000FEF7B1FF01216120FEF7ADFF00216A2091
:102BB000FEF7A9FF00218020FEF7A5FF002181205C
:102BC000FEF7A1FF00218220FEF79DFF0021832058
:102BD000FEF799FF00218420FEF795FF0021852054
:102BE000FEF791FF10219020FEF78DFF4FF4C0619A
:102BF0009220FEF788FF40F233110720FEF783FF93
:102C000068E513488088A0F5134120397DD107205D
:102C1000FEF779FF322001F070FD4FF48E71122023
:102C2000FEF771FF0121A420FEF76DFF0F210820A0
:102C3000FEF769FF08210A20FEF765FF08210D2035
:102C4000FEF761FF40F207713020FEF75CFF01E004
:102C50008010002007213120FEF755FF40F203616C
:102C60003220FEF750FF4FF4E0613320FEF74BFFB8
:102C700040F202213420FEF746FF02213520FEF704
:102C800042FF41F60F713620FEF73DFF40F207711B
:102C90003720FEF738FF00213820FEF734FF0021EF
:102CA0003920FEF730FF40F207713A20FEF72BFF84
:102CB00000213B20FEF727FF07213C20FEF723FFE2
:102CC00000213D20FEF71FFF322001F016FD0121FB
:102CD0000720FEF718FF01211720FEF714FF32200E
:102CE00001F00BFD4FF4BD511020FEF70CFF40F238
:102CF00017211120FEF707FF4FF48F711220FEF706
:102D000002FF4FF47061132000E09AE0FEF7FBFE33
:102D100000212A20FEF7F7FE0A212920FEF7F3FE04
:102D20004FF49F711220FEF7EEFE00215020FEF7B7
:102D3000EAFEEF215120FEF7E6FE00215220FEF7C9
:102D4000E2FE40F23F115320FEF7DDFE4FF41C512E
:102D50006020FEF7D8FE01216120FEF7D4FE00219D
:102D60006A20FEF7D0FE00218020FEF7CCFE002175
:102D70008120FEF7C8FE00218220FEF7C4FE00215C
:102D80008320FEF7C0FE00218420FEF7BCFE002158
:102D90008520FEF7B8FE13219020FEF7B4FE4FF415
:102DA00040719220FEF7AFFE05219320FEF7ABFEA7
:102DB00000219520FEF7A7FE00219720FEF7A3FE35
:102DC00000219820FEF79FFE4FF480710120FEF74E
:102DD0009AFE4FF4E0610220FEF795FE41F23001C9
:102DE0000320FEF790FE00210420FEF78CFE002158
:102DF0000C20FEF788FE00210F20FEF784FE002144
:102E00002020FEF780FE00212120FEF77CFE2121FC
:102E10000720FEF778FE142001F06FFC61210720E7
:102E2000FEF771FE142001F068FC40F273110720D8
:102E3000FEF769FE142001F060FC2220FEF75AFE26
:102E400048E4FF488088A0F5134131397DD141F233
:102E50001401E720FEF757FE4FF480710120FEF7C2
:102E600052FE4FF400710220FEF74DFE41F2380190
:102E70000320FEF748FE40F202210820FEF743FE41
:102E800000210920FEF73FFE00210A20FEF73BFE4D
:102E900000210C20FEF737FE00210D20FEF733FE47
:102EA00000210F20FEF72FFE00211020FEF72BFE41
:102EB00007211120FEF727FE00211220FEF723FE36
:102EC00000211320FEF71FFEC82001F016FC41F27E
:102ED00090611020FEF717FE40F227211120FEF727
:102EE00012FE322001F009FC0C211220FEF70BFE2D
:102EF000322001F002FC4FF400611320FEF703FEC4
:102F000011212920FEF7FFFD0B212B20FEF7FBFDF1
:102F1000322001F0F2FB00212020FEF7F4FD40F208
:102F20003F112120FEF7EFFD00213020FEF7EBFDE1
:102F30004FF483713120FEF7E6FD00213220FEF7C9
:102F4000E2FD4FF40171352000E064E0FEF7DBFDA7
:102F500041F20A613620FEF7D6FD40F207713720B4
:102F6000FEF7D1FD4FF483713820FEF7CCFD40F21F
:102F700007713920FEF7C7FD40F202413C20FEF701
:102F8000C2FD40F60F413D20FEF7BDFD002150205F
:102F9000FEF7B9FDEF215120FEF7B5FD00215220CB
:102FA000FEF7B1FD40F23F115320FEF7ACFD4FF4A8
:102FB0001C516020FEF7A7FD01216120FEF7A3FD53
:102FC00000216A20FEF79FFD00218020FEF79BFD77
:102FD00000218120FEF797FD00218220FEF793FD5E
:102FE00000218320FEF78FFD00218420FEF78BFD5A
:102FF00000218520FEF787FD10219020FEF783FD3C
:103000004FF4C0619220FEF77EFD40F2331107209D
:10301000FEF779FD1BE48A488088A0F5A8410839AD
:103020007ED14FF480710120FEF76DFD4FF4E06119
:103030000220FEF768FD41F230010320FEF763FD38
:1030400000210420FEF75FFD40F207210820FEF773
:103050005AFD00210920FEF756FD00210A20FEF747
:1030600052FD00210C20FEF74EFD00210D20FEF741
:103070004AFD00210F20FEF746FD142001F03DFB24
:1030800041F2B0611020FEF73EFD01211120FEF754
:103090003AFD01211720FEF736FD4FF49C711220F6
:1030A000FEF731FD4FF400611320FEF72CFD0921DE
:1030B0002920FEF728FD09212A20FEF724FD002102
:1030C000A420FEF720FD00215020FEF71CFDEF217B
:1030D0005120FEF718FD00215220FEF714FD40F2AA
:1030E0003F115320FEF70FFD4FF41C516020FEF7F7
:1030F0000AFD01216120FEF706FD00216A20FEF78E
:1031000002FD00218020FEF7FEFC00218120FEF759
:10311000FAFC00218220FEF7F6FC0021832000E06B
:1031200023E0FEF7F0FC00218420FEF7ECFC0021F8
:103130008520FEF7E8FC13219020FEF7E4FC002137
:103140009220FEF7E0FC03219320FEF7DCFC4FF415
:1031500088719520FEF7D7FC40F273110720FEF727
:10316000D2FC322001F0C9FA4FE435488088A0F53E
:10317000A851053963D10720FEF7C5FC322001F0C4
:10318000BCFA4FF48E711220FEF7BDFC0121A42081
:10319000FEF7B9FC0F210820FEF7B5FC08210A2034
:1031A000FEF7B1FC08210D20FEF7ADFC40F20771DF
:1031B0003020FEF7A8FC07213120FEF7A4FC40F2E6
:1031C00003613220FEF79FFC4FF4E0613320FEF7ED
:1031D0009AFC40F202213420FEF795FC02213520B2
:1031E000FEF791FC41F60F713620FEF78CFC40F2A1
:1031F00007713720FEF787FC00213820FEF783FC9B
:1032000000213920FEF77FFC40F207713A20FEF7DB
:103210007AFC00213B20FEF776FC07213C20FEF7DC
:1032200072FC00213D20FEF76EFC322001F065FAB1
:1032300001210720FEF767FC0121172002E0B0E022
:1032400080100020FEF75FFC322001F056FA4FF4A8
:10325000BD511020FEF757FC40F217211120FEF758
:1032600052FC4FF48F711220FEF74DFC4FF4706149
:103270001320FEF748FC00212A20FEF744FC0A2117
:103280002920FEF740FC4FF49F711220FEF73BFC13
:1032900000215020FEF737FCEF215120FEF733FCD0
:1032A00000215220FEF72FFC40F23F115320FEF781
:1032B0002AFC4FF41C516020FEF725FC01216120FF
:1032C000FEF721FC00216A20FEF71DFC0021802072
:1032D000FEF719FC00218120FEF715FC0021822059
:1032E000FEF711FC00218320FEF70DFC0021842055
:1032F000FEF709FC00218520FEF705FC1321902034
:10330000FEF701FC4FF440719220FEF7FCFB052113
:103310009320FEF7F8FB00219520FEF7F4FB002137
:103320009720FEF7F0FB00219820FEF7ECFB4FF40E
:1033300080710120FEF7E7FB4FF4E0610220FEF709
:10334000E2FB41F238010320FEF7DDFB00210420FF
:10335000FEF7D9FB00210C20FEF7D5FB00210F2042
:10336000FEF7D1FB00212020FEF7CDFB002121201C
:10337000FEF7C9FB21210720FEF7C5FB142001F051
:10338000BCF961210720FEF7BEFB142001F0B5F95E
:1033900040F273110720FEF7B6FB142001F0ADF9DF
:1033A0002EE4FF488088A0F5354105397DD10846D7
:1033B000FEF7A9FB00210846FEF7A5FB0021084601
:1033C000FEF7A1FB00210846FEF79DFB0121A4208A
:1033D000FEF799FB142001F090F94FF41C51602086
:1033E000FEF791FB40F202210820FEF78CFB4FF420
:1033F00005713020FEF787FB43F215713120FEF78F
:1034000082FB40F204613220FEF77DFB40F616613C
:103410003320FEF778FB42F211213420FEF773FBD4
:103420004FF4A8513520FEF76EFB48F207513620C5
:10343000FEF769FB41F207413720FEF764FB41F2DA
:1034400003413820FEF75FFB20213920FEF75BFBAC
:103450001A219020FEF757FB00211020FEF753FBA6
:1034600007211120FEF74FFB00211220FEF74BFB36
:1034700000211320FEF747FB142001F03EF94FF422
:10348000E6611020FEF73FFB40F237111120FEF7F6
:103490003AFB142001F031F94FF4DC711220FEF7F1
:1034A00032FB142001F029F900E083E04FF4706151
:1034B0001320FEF728FB80212A20FEF724FB482159
:1034C0002920FEF720FB142001F017F94FF480713A
:1034D0000120FEF718FB4FF4E0610220FEF713FB1A
:1034E00041F238010320FEF70EFB40F202210820D2
:1034F000FEF709FB00210A20FEF705FB00210C2046
:10350000FEF701FB00210D20FEF7FDFA30210E2011
:10351000FEF7F9FA00215020FEF7F5FAEF215120CD
:10352000FEF7F1FA00215220FEF7EDFA40F23F11CA
:103530005320FEF7E8FA4FF41C516020FEF7E3FA3F
:1035400001216120FEF7DFFA00216A20FEF7DBFA95
:1035500011219020FEF7D7FA4FF4C0619220FEF7B8
:10356000D2FA40F202419320FEF7CDFA02219420D4
:10357000FEF7C9FA142001F0C0F801210720FEF778
:10358000C2FA142001F0B9F861210720FEF7BBFA56
:1035900040F273110720FEF7B6FA00212020FEF753
:1035A000B2FA00212120FEF7AEFA22210020FEF718
:1035B000AAFA45E47A488088A0F5454105397DD1CD
:1035C0000846FEF7A0FA00210846FEF79CFA1420F0
:1035D00001F093F800210846FEF795FA002108460D
:1035E000FEF791FA00210846FEF78DFA0021084601
:1035F000FEF789FA0121A420FEF785FA142001F0D4
:103600007CF84FF41C516020FEF77DFA40F606016D
:103610000820FEF778FA40F203713020FEF773FAC3
:1036200001213120FEF76FFA04213220FEF76BFAF8
:103630004FF481713320FEF766FA4FF44071342065
:10364000FEF761FA40F203113520FEF75CFA1F2104
:103650003620FEF758FA40F203713720FEF753FA8E
:1036600001213820FEF74FFA04213920FEF74BFAEA
:1036700015219020FEF747FA4FF482611020FEF7E3
:1036800042FA40F247211120FEF73DFA4FF4DE7175
:103690001220FEF738FA4FF460611320FEF733FA78
:1036A000782001F02AF84FF480710120FEF72BFA00
:1036B0004FF400710220FEF726FA00E050E041F2DC
:1036C00030010320FEF71FFA08210A20FEF71BFA3B
:1036D00000210C20FEF717FA20210E20FEF713FA26
:1036E00000210F20FEF70FFA00212020FEF70BFA31
:1036F00000212120FEF707FA3D212A20FEF703FAD8
:10370000142000F0FAFF2D212920FEF7FCF90021FA
:103710005020FEF7F8F94DF2EF015120FEF7F3F9D2
:1037200000215220FEF7EFF940F23F115320FEF73F
:10373000EAF900216120FEF7E6F900216A20FEF790
:10374000E2F94FF440719220FEF7DDF90521932054
:10375000FEF7D9F94FF480710720FEF7D4F92DE375
:103760000F488088A0F5094189397ED101210020C8
:10377000FEF7C9F94AF6A4010320FEF7C4F90021B7
:103780000C20FEF7C0F940F60C010D20FEF7BBF946
:103790004FF42C510E20FEF7B6F9B0211E2001E0A7
:1037A00080100020FEF7AFF942F63F310120FEF70E
:1037B000AAF94FF4C0610220FEF7A5F900211020FC
:1037C000FEF7A1F946F278011120FEF79CF90021DD
:1037D0000520FEF798F900210620FEF794F94EF631
:1037E0001C711620FEF78FF903211720FEF78BF9C5
:1037F00040F233210720FEF786F900210B20FEF767
:1038000082F900210F20FEF77EF900214120FEF70A
:103810007AF900214220FEF776F900214820FEF7D0
:1038200072F940F23F114920FEF76DF900214A205C
:10383000FEF769F900214B20FEF765F94FF46F415F
:103840004420FEF760F900214520FEF75CF940F2C4
:103850003F114620FEF757F940F207713020FEF77E
:1038600052F94FF40171312000E03FE0FEF74BF9CF
:103870004FF401713220FEF746F940F20251332035
:10388000FEF741F940F207513420FEF73CF94FF4BE
:1038900001713520FEF737F94FF401713620FEF73C
:1038A00032F940F202513720FEF72DF940F2023191
:1038B0003A20FEF728F940F202313B20FEF723F9C7
:1038C00000212320FEF71FF900212420FEF71BF919
:1038D0004FF400412520FEF716F900214F20FEF796
:1038E00012F900214E20FEF70EF967E2FF488088AA
:1038F000A0F58A4131397ED101210020FEF703F97C
:103900000A2000F0FAFE41F228611020FEF7FBF8D1
:103910000E211220FEF7F7F840F639211320FEF7AA
:10392000F2F80A2000F0E9FE40211120FEF7EBF842
:1039300050211520FEF7E7F80A2000F0DEFE1E21D8
:103940001220FEF7E0F80A2000F0D7FE4FF4B15144
:103950001020FEF7D8F842F639211320FEF7D3F8ED
:103960000A2000F0CAFE4FF480710120FEF7CBF868
:103970004FF440710220FEF7C6F841F238010320EF
:10398000FEF7C1F840F202210820FEF7BCF808213A
:103990000A20FEF7B8F800213020FEF7B4F840F214
:1039A00002413120FEF7AFF84FF483713220FEF769
:1039B000AAF840F203513320FEF7A5F84FF48271C4
:1039C0003420FEF7A0F840F201313520FEF79BF8D5
:1039D00040F207713620FEF796F840F205313720A5
:1039E000FEF791F84FF402713820FEF78CF840F69C
:1039F0000B71392000E03BE0FEF785F80221412001
:103A0000FEF781F84FF41C516020FEF77CF801218D
:103A10006120FEF778F84FF404719020FEF773F8F8
:103A20004FF485719220FEF76EF804219320FEF783
:103A30006AF84FF48071A020FEF765F80121072095
:103A4000FEF761F821210720FEF75DF8232107200A
:103A5000FEF759F833210720FEF755F840F23311ED
:103A60000720FEF750F80021A020FEF74CF8A5E152
:103A70009E488088A0F58A4135397ED130211520B5
:103A8000FEF741F810219A20FEF73DF82021112081
:103A9000FEF739F843F228411020FEF734F80221EE
:103AA0001220FEF730F841F238011320FEF72BF810
:103AB000282000F022FE12210846FEF724F82820D4
:103AC00000F01BFE43F220411020FEF71CF843F2E9
:103AD00038011320FEF717F8462000F00EFE0021F3
:103AE0003020FEF710F840F202413120FEF70BF8CB
:103AF00040F207313220FEF706F84FF441713320CF
:103B0000FEF701F804213420FDF7FDFF40F20141EA
:103B10003520FDF7F8FF40F207713620FDF7F3FF7F
:103B200040F205313720FDF7EEFF4FF4C261382037
:103B3000FDF7E9FF4FF4C2613920FDF7E4FF4FF4D0
:103B400080710120FDF7DFFF4FF440710220FDF787
:103B5000DAFF41F230010320FDF7D5FF40F60801FE
:103B60000820FDF7D0FF08210A20FDF7CCFF4FF415
:103B70001C516020FDF7C7FF00E031E0012161200A
:103B8000FDF7C1FF4FF49F719020FDF7BCFF4FF48C
:103B900080719220FDF7B7FF4FF480719320FDF7FD
:103BA000B2FF4FF44051A020FDF7ADFF1021A3203C
:103BB000FDF7A9FF01210720FDF7A5FF212107201F
:103BC000FDF7A1FF23210720FDF79DFF33210720EB
:103BD000FDF799FF40F233110720FDF794FFEDE068
:103BE00042488088702812D110210120FDF78BFFF8
:103BF0003E480088401E81B20720FDF784FF3B4805
:103C00004088401E81B20620FDF77DFFD6E0374890
:103C10008088A0F5C8516339E1D1E220FDF76AFF41
:103C20002320FDF76AFF0220FDF767FF0420FDF760
:103C300064FFE020FDF75EFF0120FDF75EFF01203D
:103C400000F05BFDE020FDF755FF0320FDF755FF79
:103C5000052000F052FD0120FDF74CFF052000F08B
:103C60004CFDE620FDF746FF0320FDF746FFFF2051
:103C7000FDF743FFFF20FDF740FFB020FDF73AFFBF
:103C80000020FDF73AFF0020FDF737FF18480088B5
:103C9000000AFDF732FF16490988C8B2FDF72DFF6B
:103CA00014480088000AFDF728FF12490988C8B2A5
:103CB000FDF723FF0020FDF720FFB420FDF71AFFDA
:103CC0000D480088000AFDF718FF0B490988C8B2A3
:103CD000FDF713FF09480088000AFDF70EFF0749AA
:103CE0000988C8B2FDF709FF05480BE080100020E5
:103CF0004A000020540000204C0000204E0000200C
:103D0000520000200078FDF7F8FEFB480088000A0A
:103D1000FDF7F3FEF8490988C8B2FDF7EEFE002072
:103D2000FDF7EBFEB620FDF7E5FEF4480088000A3B
:103D3000FDF7E3FEF1490988C8B2FDF7DEFEF04861
:103D40000088000AFDF7D9FEED490988C8B2FDF7E1
:103D5000D4FEEC480078FDF7D0FEEB480088000A5E
:103D6000FDF7CBFEE8490988C8B2FDF7C6FEBA20C8
:103D7000FDF7C0FE0520FDF7C0FEB820FDF7BAFE36
:103D80000720FDF7BAFE0120FDF7B7FE3620FDF74C
:103D9000B1FE0020FDF7B1FEF020FDF7ABFE0320E1
:103DA000FDF7ABFE052000F0A8FC2920FDF7A2FEE0
:103DB000D020FDF79FFE0D20FDF79FFE0020FEF7AF
:103DC00029F94FF6FF70FEF7DEF91FB000BD2DE9AF
:103DD000F04F05460E4617469846DDF824A04FF0F2
:103DE000000BA7EB050000F101001FFA80FB344631
:103DF00014E021462846FDF7B4FEFDF794FE4FF08F
:103E0000000906E05046FDF778FE09F101001FFAAF
:103E100080F9D945F6DB04F1010084B24445E8DDC0
:103E2000BDE8F08F2DE9F84F07460D4690469946BC
:103E3000DDF828B0A8EB070000F1010080B2009087
:103E4000A9EB050000F101001FFA80FA4FF0000411
:103E500018E0281981B23846FDF783FEFDF763FEAE
:103E60004FF0000608E004FB0A603BF81000A74989
:103E7000088006F1010086B200988642F3DB04F167
:103E8000010084B25445E4DBBDE8F88F2DE9FF4F13
:103E900084B081468A464FF0000003900290069855
:103EA000A0EB09050798A0EB0A06CDF80490CDF821
:103EB00000A0002D02DD4FF0010707E015B94FF01B
:103EC000000703E04FF0FF37C5F10005002E02DDCB
:103ED0004FF0010807E016B94FF0000803E04FF07B
:103EE000FF38C6F10006B54201DD2C4600E034463D
:103EF0004FF0000B23E0009881B2019880B2FEF7EA
:103F00003AF80398284403900298304402900398AA
:103F1000A04206DD0398A0EB04000390019838440A
:103F200001900298A04206DD0298A0EB04000290E6
:103F30000098404400900BF101001FFA80FB601CC8
:103F40008345D8DD08B0BDE8F08FF0B504460D46D6
:103F500016461F462B46324629462046FFF796FF57
:103F60003B46224629462046FFF790FF3B46324615
:103F700039462046FFF78AFF3B46324629463046FF
:103F8000FFF784FFF0BD2DE9F04306460F4690464B
:103F90004FF0000445464FF00300A0EB480943E012
:103FA0007A1B91B2321990B2FDF7E5FF3A1B91B23C
:103FB000721990B2FDF7DFFF3A1991B2721990B2FF
:103FC000FDF7D9FF7A1991B2321990B2FDF7D3FFFC
:103FD0007A1991B2321B90B2FDF7CDFF3A1991B226
:103FE000721B90B2FDF7C7FF7A1B91B2321B90B2E1
:103FF000FDF7C1FF3A1B91B2721B90B2FDF7BBFFF8
:1040000004F10104B9F1000F05DA4FEA840000F170
:104010000600814408E0A4EB05004FEA800000F1AF
:104020000A008144A5F10105AC42B9DDBDE8F08389
:104030002DE9F84F05460F4690461E460097344836
:10404000B0F80090A8F1200000F0FF080A980028BE
:1040500068D104464CE00C2E07D108EB48002D49EE
:1040600001EB800010F804A004E02B4800EB0810DE
:1040700010F804A04FF0000B33E01AF0800F03D0CB
:104080002348A0F8009003E02448008820490880D5
:1040900039462846FDF76FFF4FEA4A604FEA106A3B
:1040A00007F1010087B21E480088A84204DC1848C6
:1040B000A0F80090BDE8F88F0098381AB0420CD1F3
:1040C000009F05F1010085B215480088A84203DC75
:1040D0000F48A0F80090EDE706E00BF1010000F0BA
:1040E000FF0BBBF1080FC8DB00BF04F10100C4B235
:1040F000B442B0DB5FE015E0500000205600002025
:10410000580000205C0000205A00002000000860D9
:1041100046000020DA6B00084E70000848000020BE
:10412000801000204FF0000443E00C2E07D108EB74
:1041300048009D4901EB800010F804A004E09B4872
:1041400000EB081010F804A04FF0000B2AE01AF062
:10415000800F03D039462846FDF70DFF4FEA4A602D
:104160004FEA106A07F1010087B291484088A842DF
:1041700003DC9048A0F800909CE70098381AB04201
:104180000CD1009F05F1010085B289480088A84242
:1041900003DC8848A0F800908CE706E00BF10100F2
:1041A00000F0FF0BBBF1080FD1DB00BF04F10100F1
:1041B000C4B2B442B9DB7F48A0F8009000BF79E7F1
:1041C00010B502464FF0010000E050430B00A1F192
:1041D0000104E1B2F9D110BD2DE9FF4F81B00746CE
:1041E00091461E460E9D4FF0000A54463DE0301B9E
:1041F000401EC1B20A20FFF7E3FFB9FBF0F04FF019
:104200000A01B0FBF1F201FB120000F0FF08BAF165
:10421000000F16D1701EA04213DDB8F1000F0ED1B1
:104220000020AB4605EBDB71491001FB04710090E7
:1042300088B22B4620220299FFF7FAFE12E04FF0D7
:10424000010A0020AB4605EBDB71491001FB04714C
:10425000009088B22B4608F13001CAB20299FFF7EC
:10426000E7FE00BF04F10100C4B2B442BFDB05B0F9
:10427000BDE8F08F2DE9FF4F82B0064692461F46FB
:10428000DDE90F484FF000000190054652E0781B31
:10429000401EC1B20A20FFF793FFBAFBF0F04FF0C7
:1042A0000A01B0FBF1F201FB120000F0FF090198D6
:1042B00058BB781EA84228DDB9F1000F22D118F0B2
:1042C000800F0FD008F00100A34604EBDB7149100A
:1042D00001FB0561009088B2234630220399FFF765
:1042E000A7FE0EE008F00100A34604EBDB714910C5
:1042F00001FB0561009088B2234620220399FFF755
:1043000097FE14E04FF00100019008F00100A34671
:1043100004EBDB71491001FB0561009088B2234674
:1043200009F13001CAB20399FFF782FE00BF05F11F
:104330000100C5B2BD42AADB06B0BDE8F08F2DE991
:10434000F84704460D4690469946DDE9096704F0B2
:10435000FF0A08EB04001FFA80F809EB05001FFABA
:1043600080F918E0444503DB544605EB060085B2AE
:104370004D4500DB15E0002000903A783346294691
:104380002046FFF755FE304606EBD07104EB610185
:104390008CB207F1010738787E2802DC38782028B3
:1043A000E0DA00BFBDE8F887DA6B00084E7000085D
:1043B000801000204600002008B50121442001F0B3
:1043C0001BF84FF01C00ADF800004FF048008DF8CE
:1043D00003006946384801F0E5F84FF00100ADF8F8
:1043E00000004FF028008DF803006946334801F0C3
:1043F000D9F808BD10B504461CB14FF00100304992
:1044000008702F480078002839D010212A4801F080
:1044100065F978B10821284801F060F950B104210C
:10442000254801F05BF928B10121244801F056F933
:10443000012824D10A2000F060F94FF00000204943
:1044400008704FF010011C4801F048F908B901202C
:1044500010BD0821184801F041F908B90220F7E71A
:104460000421154801F03AF908B90320F0E70121C9
:10447000124801F033F901281CD10420E8E710218B
:104480000D4801F02BF9012814D108210A4801F048
:1044900025F901280ED10421074801F01FF9012850
:1044A00008D10121054801F019F918B94FF00100B0
:1044B000034908700020CBE70018014000080140C4
:1044C0005D00002008B50121482000F095FF4FF065
:1044D0002000ADF800004FF010008DF803004FF001
:1044E00003008DF802006946094801F05BF82021BD
:1044F000074801F013F94FF02000ADF800006946BD
:10450000044801F04FF82021024801F007F908BDE6
:10451000000C014000180140014600BF704700BF79
:10452000504A128812F0400FFAD0C2B24E4B1A8095
:10453000704710B586B004464FF0010144F2040004
:1045400000F05AFF474800F0A7F94FF40070ADF8AB
:1045500014004FF003008DF816004FF018008DF88E
:10456000170005A9414801F01DF84FF48060ADF82F
:1045700014004FF004008DF8170005A93B4801F026
:1045800011F84FF025008DF800004FF003008DF872
:1045900001008DF802004FF001008DF8030068461D
:1045A00000F000F901944FF00000ADF80800ADF8FC
:1045B0000A00ADF80C00ADF810004FF00C00ADF89B
:1045C0000E0001A9274800F0AAF9012240F2255166
:1045D000244800F05BFA0121224800F04AFA06B0B4
:1045E00010BD10B540F225511E4800F060FB18B315
:1045F0001C4800F0C5FAC4B21D48008810F4004FF2
:104600002ED11B48008810F4804F0DD00A2C04D006
:104610004FF000001649088022E01548008840F459
:104620000040134908801BE00D2C06D1104800887B
:1046300040F480400E49088012E00D480088C0F325
:104640000D000C490C540A48008800F1010008498B
:10465000088008460088C72802DD4FF00000088067
:1046600010BD00000038014004380140000801403E
:10467000600000208A10002010B54FF4A06000F008
:104680008BF810BD10B56FF0040000F0E2F82E4872
:1046900000682E49B0FBF1F02D49087008460078FB
:1046A0004FF47A7100FB01F02A49088010BD0146E1
:1046B000274A127801FB02F24FF0E0235A614FF0D3
:1046C00000029A611A46126942F001021A6100BFA3
:1046D0004FF0E022106910F0010F02D010F4803F7B
:1046E000F6D04FF0E022126922F001024FF0E023F1
:1046F0001A614FF000029A6170470146154A12880C
:1047000001FB02F24FF0E0235A614FF000029A6180
:104710001A46126942F001021A6100BF4FF0E0220E
:10472000106910F0010F02D010F4803FF6D04FF066
:10473000E022126922F001024FF0E0231A614FF0EB
:1047400000029A61704700000000002000127A0009
:10475000680000206A000020094880470948004797
:10476000FEE7FEE7FEE7FEE7FEE7FEE7FEE7FEE721
:10477000FEE7FEE704480549054A064B704700007E
:10478000A902000831010008B8110020B817002064
:10479000B8130020B8130020384940EA0101384A14
:1047A0001160704770B54FF000010B464FF00F02DB
:1047B000C4784CB3324C246804F4E064C4F5E0647B
:1047C0004FEA1421C1F1040322FA01F2447804FAF9
:1047D00003F1847804EA020444EA01014FEA01117A
:1047E000284C0678A155047804F01F054FF0010409
:1047F00004FA05F405784FEA65154FF0E02606EB5C
:104800008505C5F800410CE0047804F01F054FF061
:10481000010404FA05F41C4D06784FEA661645F8C3
:10482000264070BD194A01EA020242EA0002184B12
:104830001A60704731B1174A126842EA0002154BFC
:104840001A6005E0134A126822EA0002114B1A604E
:104850007047042808D14FF0E021096941F00401B4
:104860004FF0E022116107E04FF0E021096921F0EB
:1048700004014FF0E0221161704700000000FA05CA
:104880000CED00E000E400E080E100E080FFFF1FAD
:1048900008ED00E010ED00E010B50446F848844251
:1048A00009D10121880300F0C5FD00214FF48040AB
:1048B00000F0C0FD32E0F348844209D101214804F0
:1048C00000F0C7FD00214FF4003000F0C2FD25E0EC
:1048D000ED48844209D10121880400F0BAFD00218D
:1048E0004FF4802000F0B5FD18E0E848844209D17B
:1048F0000121C80400F0ADFD00214FF4002000F0BC
:10490000A8FD0BE0E248844208D10121080500F02F
:10491000A0FD00214FF4801000F09BFD10BD2DE99B
:10492000F04786B005460E464FF00004A24600BF91
:10493000A1462746B08900B100BF2F462C8A4CF60D
:10494000FF7004EA0004F08840EA04042C82AC8979
:104950004EF6F31004EA0004B088318940EA010001
:10496000718940EA010040EA0404AC81AC8A4FF648
:10497000FF4004EA0004B08940EA0404AC8201A8C4
:1049800000F0BFFCBE48874202D1DDF810A001E074
:10499000DDF80CA0A88910F4004F09D00AEBCA007A
:1049A00000EB0A1031684FEA4101B0FBF1F808E072
:1049B0000AEBCA0000EB0A1031684FEA8101B0FB34
:1049C000F1F84FF06400B8FBF0F04FEA00144FEA42
:1049D00014104FF0640101FB1089A88910F4004FF6
:1049E0000AD04FF0320000EBC900B0FBF1F000F04C
:1049F000070040EA04040BE04FF0320000EB09101E
:104A00004FF06401B0FBF1F000F00F0040EA040445
:104A10002C8106B0BDE8F0874FF4165101604FF0CD
:104A200000018180C18001814FF00C0141814FF074
:104A300000018181704710B502464FF00000108AD6
:104A40004FF2FF0300EA03000B884C8843EA04039B
:104A50008C8843EA0403CC8843EA040343EA000059
:104A6000108210BD4FF00001018041808180C18023
:104A7000704721B1828942F40052828105E0828927
:104A80004DF6FF7302EA030282817047F0B50346D8
:104A90004FF00004264625462046A1F510676A3FE0
:104AA00000D100BF1846C1F3421401F01F064FF0B9
:104AB000010707FA06F5012C02D100F10C0006E00F
:104AC000022C02D100F1100001E000F1140022B12B
:104AD000076847EA0507076003E0076827EA050754
:104AE0000760F0BD10B522B1838A43EA01038382D7
:104AF00006E0838A6FEA0104A4B203EA0403838216
:104B000010BD028A4FF6F07302EA03020282028AA3
:104B100042EA01020282704782894FF2FF7302EA81
:104B200003028281828942EA01028281704721B1B7
:104B3000828942F00202828105E082894FF6FD738C
:104B400002EA030282817047028A4FF6DF7302EAAB
:104B500003020282028A42EA01020282704721B104
:104B6000028A42F48042028205E0028A4BF6FF7319
:104B700002EA030202827047C1F308028280704792
:104B800001468888C0F308007047818941F001011F
:104B900081817047028BD2B20283028B42EA0122EA
:104BA00002837047028B02F47F420283028B42EA47
:104BB00001020283704721B1828A42F02002828280
:104BC00005E0828A4FF6DF7302EA030282827047B1
:104BD00021B1828A42F01002828205E0828A4FF679
:104BE000EF7302EA03028282704721B1828A42F0A7
:104BF0000802828205E0828A4FF6F77302EA030216
:104C00008282704721B1828942F40042828103E0AE
:104C10008289C2F30E028281704721B1828A42F4F6
:104C20000062828205E0828A4FF2FF7302EA030289
:104C300082827047828A4FF6FB7302EA0302828205
:104C4000828A42EA01028282704721B1828A42F05E
:104C50000202828205E0828A4FF6FD7302EA0302B5
:104C60008282704702464FF00000B1F5007F00D10C
:104C700000BF13880B420DD04FF001000CE0000084
:104C8000003801400044004000480040004C004013
:104C9000005000404FF00000704701F40072B2F580
:104CA000007F00D100BF6FEA01020280704770B53B
:104CB00002464FF0000423461D461846A1F5106633
:104CC0006A3E00D100BFC1F3421501F01F034FF04F
:104CD000010606FA03F3012D03D1968906EA0303C0
:104CE00008E0022D03D1168A06EA030302E0968A41
:104CF00006EA03034FEA21244FF0010606FA04F402
:104D0000168806EA04041BB114B14FF0010001E05B
:104D10004FF0000070BD10B54FF000021346A1F532
:104D200010646A3C00D100BF4FEA21224FF0010419
:104D300004FA02F4A3B26FEA0304048010BD000079
:104D400010B50446DF48844208D10121801400F0E8
:104D500071FB0021A01400F06DFB16E0DA488442DC
:104D600008D10121001400F074FB0021201400F090
:104D700070FB0AE0D548844207D10121C01300F03E
:104D800068FB0021E01300F064FB10BD10B54FF08C
:104D90000002028802F441520B884C8843EA040363
:104DA0008C8843EA0403CC8843EA04030C8943EA71
:104DB00004034C8943EA04038C8943EA0403CC8945
:104DC00043EA040343EA02020280838B4FF2FF743A
:104DD00003EA040383830B8A038210BD2DE9F04F9D
:104DE00085B005460C464FF000094FF002074FF022
:104DF00000084FF0010B4FF00006B246A88B4FF2AF
:104E0000400100EA0100A8834FF002002884B5F8B1
:104E10001C90A068022801D100BF3BE0A08810B917
:104E20004FF0010B01E04FF0020BA748854200D183
:104E300000E000BF684600F064FADDF800A0E088FA
:104E4000B0F5007F0CD14FEA1A2000EB80004FEA4A
:104E50004000A168B0FBF1F000F1050086B20DE062
:104E60004FEA4B10BAFBF0F000EB80004FEA400035
:104E7000A168B0FBF1F000F1050086B24FF00A0026
:104E8000B6FBF0F606F00108A6EB0800C0F34F07EA
:104E90004FEA0828022F01DBFF2F03DD4FF0020746
:104EA0004FF00008E08840EA080040EA0700288444
:104EB000A088A18940EA0100618840EA01002188B8
:104EC00040EA010040F4006040EA0909A5F81C909E
:104ED00005B0BDE8F08F4FF0000101804180818076
:104EE000C180018141818181C1814FF0070101822F
:104EF00070474FF00001018041808180C1804FF0F8
:104F0000020181604FF000018181704721B1028868
:104F100042F04002028005E002884FF6BF7302EAC9
:104F200003020280704721B1828B42F48062828347
:104F300005E0828B4FF6FF3302EA0302828370475B
:104F400070B54FF0000423464FEA21144FF00105DD
:104F500005FA04F5ABB222B1858845EA03058580E0
:104F600006E085886FEA0306B6B205EA0605858085
:104F700070BD10B522B1838843EA0103838006E047
:104F800083886FEA0104A4B203EA0403838010BD9E
:104F900081817047014688897047A1F57E42FF3ABA
:104FA00004D0028842F48072028005E002884FF645
:104FB000FF6302EA03020280704721B1828842F057
:104FC0000402828005E082884FF6FB7302EA030246
:104FD0008280704702884FF2FF7302EA0302028068
:104FE000028842EA010202807047018841F4805140
:104FF0000180704721B1028842F40052028005E02E
:1050000002884DF6FF7302EA0302028070470246EF
:105010004FF00000012901D0108B00E0908A70470A
:105020000146088A7047B1F5804F04D1028842F4E6
:105030008042028005E002884BF6FF7302EA030219
:105040000280704702464FF0000013890B4202D0E5
:105050004FF0010001E04FF0000070476FEA0102DD
:1050600002817047F0B502464FF000000446034647
:10507000054601F00F074FF0010606FA07F6B4B235
:105080004FEA21134FF0010606FA03F6B3B29688F1
:1050900006EA03051689264203D015B14FF0010038
:1050A00001E04FF00000F0BD10B54FF0000201F03C
:1050B0000F044FF0010303FA04F39AB26FEA0203FC
:1050C000038110BD0030014000380040003C00402A
:1050D000F748006840F00100F5490860084640685C
:1050E000F44900EA0100F249486008460068F249C4
:1050F00000EA0100EE4908600846006820F48020BC
:1051000008600846406820F4FE0048604FF41F0025
:1051100088607047E649096821F48031E44A1160EB
:105120001146096821F480211160B0F5803F03D059
:10513000B0F5802F0ED106E0DD49096841F48031D9
:10514000DB4A116007E0DA49096841F4A021D84A36
:10515000116000E000BF00BF704710B501464FF07E
:105160000002134610464FEA6112012A02D1D04CC8
:10517000236806E0022A02D1CD4C236A01E0CC4C20
:10518000636A01F01F024FF0010404FA02F41C42AA
:1051900002D04FF0010001E04FF0000010BD70B5EB
:1051A0004FF000042546264600BF3120FFF7D5FF0B
:1051B000064604F10104B4F5A06F01D0002EF4D02E
:1051C0003120FFF7CAFF10B14FF0010501E04FF0A9
:1051D0000005284670BD01464FF00000B44A106833
:1051E00020F0F80040EAC10010607047B349086041
:1051F000704702464FF00000AD4B586820F47C1019
:1052000042EA010343EA0000A94B58607047AB49EA
:105210000866704701464FF00000A54A506820F02C
:10522000030040EA010050607047A148406800F068
:105230000C00704701464FF000009D4A506820F076
:10524000F00040EA01005060704701464FF0000056
:10525000974A506820F4E06040EA010050607047CF
:1052600001464FF00000924A506820F4605040EA36
:10527000C1005060704731B18D4A527A42EA000253
:105280008B4B5A7208E08A4A527A6FEA0003DBB20B
:1052900002EA0302864B5A727047894908607047D8
:1052A00001464FF00000824A506820F4404040EA36
:1052B0000100506070474FF00001824A11707C4A33
:1052C00082F82010012802D004280AD104E04FF00F
:1052D00001017C4A117005E04FF00501794A117017
:1052E00000E000BF00BF7047774908607047704911
:1052F000096A41EA00016E4A116270477349086009
:10530000704730B54FF000010A460C460B46684D19
:105310006D6805F00C0121B1042905D0082927D1B9
:1053200005E06B4D056026E0694D056023E0604DAA
:105330006D6805F470125E4D6D6805F480344FF0B1
:10534000020505EB924224B9624D02FB05F50560AA
:105350000DE0574D6D6815F4003F04D05D4D02FB24
:1053600005F5056003E05A4D02FB05F5056002E016
:10537000574D056000BF00BF4D4D6D6805F0F00151
:105380004FEA1111544D6B5C056825FA03F5456031
:10539000474D6D6805F4E0614FEA11214E4D6B5C9D
:1053A000456825FA03F58560414D6D6805F4605147
:1053B0004FEAD121484D6B5C456825FA03F5C5607D
:1053C0003B4D6D6805F440414FEA9131434D6B5CB4
:1053D000C568B5FBF3F5056130BD31B1344A52699A
:1053E00042EA0002324B5A6105E0314A526922EA30
:1053F00000022F4B5A61704731B12D4A926942EA3F
:1054000000022B4B9A6105E0294A926922EA0002C8
:10541000274B9A61704731B1254AD26942EA0002AE
:10542000234BDA6105E0224AD26922EA0002204BCE
:10543000DA61704731B11E4AD26842EA00021C4B61
:10544000DA6005E01A4AD26822EA0002184BDA60F4
:10545000704731B1164A126942EA0002144B1A61D0
:1054600005E0134A126922EA0002114B1A617047E3
:105470001B49086070471149C86470470C49C871DE
:1054800070470B48406A40F0807009494862704795
:1054900001464FF00000064A92680A4202D04FF0DF
:1054A000010001E04FF00000704701498872704729
:1054B000001002400000FFF8FFFFF6FE000042422D
:1054C000D800424220100240800442423C04424242
:1054D00000127A0000093D006C0000207C000020D2
:1054E0004004424210B50446DE48844208D10121FE
:1054F0000420FFF79FFF00210420FFF79BFF46E0F9
:10550000D948844208D101210820FFF793FF0021E8
:105510000820FFF78FFF3AE0D448844208D10121E8
:105520001020FFF787FF00211020FFF783FF2EE0F8
:10553000CF48844208D101212020FFF77BFF0021C2
:105540002020FFF777FF22E0CA48844208D10121DA
:105550004020FFF76FFF00214020FFF76BFF16E0B0
:10556000C548844208D101218020FFF763FF002154
:105570008020FFF75FFF0AE0C048844207D1012185
:105580008015FFF757FF0021A015FFF753FF10BD4F
:1055900010B501210846FFF74DFF00210120FFF75C
:1055A00049FF10BD2DE9F04102464FF000052E469F
:1055B000284603460446074691F803C00CF00F0541
:1055C00091F803C01CF0100F03D091F802C04CEA10
:1055D0000505B1F800C01CF0FF0F35D014684FF07E
:1055E00000002EE04FF0010C0CFA00F3B1F800C0FF
:1055F0000CEA03069E4222D14FEA80034FF00F0CC3
:105600000CFA03F724EA070405FA03FC4CEA040445
:1056100091F803C0BCF1280F06D14FF0010C0CFA31
:1056200000FCC2F814C00AE091F803C0BCF1480FB6
:1056300005D14FF0010C0CFA00FCC2F810C000F1CB
:1056400001000828CED31460B1F800C0BCF1FF0FF0
:1056500038DD54684FF0000031E000F1080C4FF0E5
:10566000010808FA0CF3B1F800C00CEA03069E42E8
:1056700023D14FEA80034FF00F0C0CFA03F724EA12
:10568000070405FA03FC4CEA040491F803C0BCF1DA
:10569000280F05D100F1080C08FA0CF8C2F81480A4
:1056A00091F803C0BCF1480F07D100F1080C4FF08E
:1056B000010808FA0CF8C2F8108000F1010008286F
:1056C000CBD35460BDE8F0814FF6FF7101804FF0FD
:1056D000020181704FF00401C170704702464FF023
:1056E000000093680B4202D04FF0010001E04FF040
:1056F000000070470146886880B2704702464FF04C
:105700000000D3680B4202D04FF0010001E04FF0DF
:10571000000070470146C86880B270470161704759
:10572000416170470AB1016100E041617047C160A9
:1057300070474FF4803242EA0102826181618261E6
:1057400082698269704702464FF000004C4B18682E
:105750004FF6807300EA030040EA021040EA0100BD
:10576000474B186070474749C8617047F0B50A4613
:105770004FF000031C4619460D4600F00046B6F1F6
:10578000004F02D13E4EF16901E03D4E7168C0F319
:10579000034583B200F44016B6F5401F08D121F04E
:1057A0007061374E766826F07066354F7E6017E080
:1057B00000F48016B6F5801F08D14FF0030606FAF4
:1057C00005F421EA040141F0706109E04FEA505606
:1057D0004FEA061603FA06F621EA060141F0706167
:1057E0003AB14FEA50564FEA061603FA06F646EA71
:1057F000010100F00046B6F1004F02D1204EF161E8
:1058000001E01F4E7160F0BD30B54FF000024FEA6D
:1058100081734FEA13744FF00F0303FA04F21A4B2B
:105820004FEAA10453F8243023EA0203164C4FEA4E
:10583000A10544F8253023464FEAA10453F824304B
:105840004FEA81744FEA147400FA04F443EA040343
:105850000D4C4FEAA10544F8253030BD0B490860D6
:105860007047000000080140000C0140001001409A
:105870000014014000180140001C014000200140BC
:10588000000001400000204208000140DC002042EE
:1058900030B943F2DB014FF0204242F8201005E01E
:1058A00043F2D2014FF0204242F820106FF07042D4
:1058B00000F101014FF0204343F8212011461A4620
:1058C00002EB8002C2F80411704710280CD14FF08F
:1058D00018014FF0204211664FF0400151664FF021
:1058E000FC319166D16611E04FF01801FB4A11605E
:1058F0004FF040014FF02042C2F884104FF0FC31CD
:10590000F74A11604FF02042C2F88C1070474FF0F8
:105910001800F44908604FF000004FF02041C1F832
:10592000A4004FF0FC30F049086001F10401086068
:1059300001F1040108607047D0E9011241EA020157
:10594000C26841EA0201026941EA0201426941EA90
:105950000201826941EA0201C26941EA0201026A66
:1059600041EA0201426A41EA0201826A41EA020115
:10597000C26A41EA0201026B41EA02014FF0204390
:10598000026843F822108168082908D11A46016884
:1059900052F8211041F04001026843F82210416B97
:1059A0000968426B526841EA0211426B926841EA0F
:1059B0000221426BD26841EA0241426B126941EA1C
:1059C0000251426B526941EA0261426B926941EABB
:1059D0000201026802F101024FF0204343F8221055
:1059E000C16AB1F5804F1BD1816B0968826B526827
:1059F00041EA0211826B926841EA0221826B1269CC
:105A000041EA0251826B526941EA0261826B9269FA
:105A100041EA0201026803EB8202C2F8041108E0C5
:105A20006FF070414FF02043026803EB8202C2F82E
:105A30000411704730B54FF000010A460B46446828
:105A400044F00804856844EA0504C56844EA05048E
:105A5000056944EA0504456944EA4524856944EA40
:105A60004531C4692468C5696D6844EA0524C5697F
:105A7000AD6844EA0544C569ED6844EA0562046A14
:105A80002468056A6D6844EA0524056AAD6844EA3D
:105A90000544056AED6844EA05630468102C05D1E5
:105AA0004FF020442166A266E36607E08B4C21603C
:105AB0004FF02044C4F888208C4C236030BD01682E
:105AC00041F01001426841EA4221826841EA4231D4
:105AD000844A1160C1680968C268526841EA0221BB
